{
  "contractName": "Ballot",
  "abi": [
    {
      "constant": true,
      "inputs": [
        {
          "name": "",
          "type": "uint256"
        }
      ],
      "name": "proposals",
      "outputs": [
        {
          "name": "name",
          "type": "int256"
        },
        {
          "name": "voteCount",
          "type": "uint256"
        }
      ],
      "payable": false,
      "stateMutability": "view",
      "type": "function"
    },
    {
      "constant": true,
      "inputs": [],
      "name": "name",
      "outputs": [
        {
          "name": "",
          "type": "string"
        }
      ],
      "payable": false,
      "stateMutability": "view",
      "type": "function"
    },
    {
      "inputs": [
        {
          "name": "_name",
          "type": "string"
        },
        {
          "name": "adds",
          "type": "address[]"
        },
        {
          "name": "proposalNames",
          "type": "int256[]"
        }
      ],
      "payable": false,
      "stateMutability": "nonpayable",
      "type": "constructor"
    },
    {
      "constant": false,
      "inputs": [
        {
          "name": "proposalID",
          "type": "uint256"
        },
        {
          "name": "weight",
          "type": "uint256"
        },
        {
          "name": "voterAddress",
          "type": "address"
        }
      ],
      "name": "vote",
      "outputs": [],
      "payable": false,
      "stateMutability": "nonpayable",
      "type": "function"
    },
    {
      "constant": false,
      "inputs": [
        {
          "name": "weight",
          "type": "uint256"
        },
        {
          "name": "to",
          "type": "address"
        },
        {
          "name": "from",
          "type": "address"
        }
      ],
      "name": "delegate",
      "outputs": [],
      "payable": false,
      "stateMutability": "nonpayable",
      "type": "function"
    },
    {
      "constant": true,
      "inputs": [],
      "name": "winnerName",
      "outputs": [
        {
          "name": "winnerName_",
          "type": "int256"
        }
      ],
      "payable": false,
      "stateMutability": "view",
      "type": "function"
    },
    {
      "constant": true,
      "inputs": [],
      "name": "getNumProposals",
      "outputs": [
        {
          "name": "numB_",
          "type": "uint256"
        }
      ],
      "payable": false,
      "stateMutability": "view",
      "type": "function"
    },
    {
      "constant": true,
      "inputs": [
        {
          "name": "_propId",
          "type": "uint256"
        }
      ],
      "name": "getName",
      "outputs": [
        {
          "name": "name_",
          "type": "int256"
        }
      ],
      "payable": false,
      "stateMutability": "view",
      "type": "function"
    },
    {
      "constant": true,
      "inputs": [
        {
          "name": "_propId",
          "type": "uint256"
        }
      ],
      "name": "getVoteCount",
      "outputs": [
        {
          "name": "voteCount_",
          "type": "uint256"
        }
      ],
      "payable": false,
      "stateMutability": "view",
      "type": "function"
    }
  ],
  "bytecode": "0x60806040523480156200001157600080fd5b5060405162000f6238038062000f628339810180604052810190808051820192919060200180518201929190602001805182019291905050506000836004908051906020019062000064929190620001d8565b5033600260006101000a81548173ffffffffffffffffffffffffffffffffffffffff021916908373ffffffffffffffffffffffffffffffffffffffff160217905550600090505b82518110156200013f577fffffffffffffffffffffffffffffffffffffffffffffffffffffffffffffffff600360008584815181101515620000e957fe5b9060200190602002015173ffffffffffffffffffffffffffffffffffffffff1673ffffffffffffffffffffffffffffffffffffffff168152602001908152602001600020819055508080600101915050620000ab565b600090505b8151811015620001ce576005604080519081016040528084848151811015156200016a57fe5b9060200190602002015181526020016000815250908060018154018082558091505090600182039060005260206000209060020201600090919290919091506000820151816000015560208201518160010155505050808060010191505062000144565b5050505062000287565b828054600181600116156101000203166002900490600052602060002090601f016020900481019282601f106200021b57805160ff19168380011785556200024c565b828001600101855582156200024c579182015b828111156200024b5782518255916020019190600101906200022e565b5b5090506200025b91906200025f565b5090565b6200028491905b808211156200028057600081600090555060010162000266565b5090565b90565b610ccb80620002976000396000f30060806040526004361061008e576000357c0100000000000000000000000000000000000000000000000000000000900463ffffffff168063013cf08b1461009357806306fdde03146100db57806350d915831461016b5780636b8ff574146101c2578063798974dd14610203578063b2c2f2e81461022e578063d0e48cad1461026f578063e2ba53f0146102dc575b600080fd5b34801561009f57600080fd5b506100be60048036038101908080359060200190929190505050610307565b604051808381526020018281526020019250505060405180910390f35b3480156100e757600080fd5b506100f061033a565b6040518080602001828103825283818151815260200191508051906020019080838360005b83811015610130578082015181840152602081019050610115565b50505050905090810190601f16801561015d5780820380516001836020036101000a031916815260200191505b509250505060405180910390f35b34801561017757600080fd5b506101c06004803603810190808035906020019092919080359060200190929190803573ffffffffffffffffffffffffffffffffffffffff1690602001909291905050506103d8565b005b3480156101ce57600080fd5b506101ed60048036038101908080359060200190929190505050610739565b6040518082815260200191505060405180910390f35b34801561020f57600080fd5b50610218610763565b6040518082815260200191505060405180910390f35b34801561023a57600080fd5b5061025960048036038101908080359060200190929190505050610770565b6040518082815260200191505060405180910390f35b34801561027b57600080fd5b506102da60048036038101908080359060200190929190803573ffffffffffffffffffffffffffffffffffffffff169060200190929190803573ffffffffffffffffffffffffffffffffffffffff16906020019092919050505061079a565b005b3480156102e857600080fd5b506102f1610b89565b6040518082815260200191505060405180910390f35b60058181548110151561031657fe5b90600052602060002090600202016000915090508060000154908060010154905082565b60048054600181600116156101000203166002900480601f0160208091040260200160405190810160405280929190818152602001828054600181600116156101000203166002900480156103d05780601f106103a5576101008083540402835291602001916103d0565b820191906000526020600020905b8154815290600101906020018083116103b357829003601f168201915b505050505081565b600260009054906101000a900473ffffffffffffffffffffffffffffffffffffffff1673ffffffffffffffffffffffffffffffffffffffff163373ffffffffffffffffffffffffffffffffffffffff161415156104c3576040517f08c379a00000000000000000000000000000000000000000000000000000000081526004018080602001828103825260288152602001807f4f6e6c79206372656174696e67204252462063616e2063616c6c20746869732081526020017f66756e6374696f6e00000000000000000000000000000000000000000000000081525060400191505060405180910390fd5b6000600360008373ffffffffffffffffffffffffffffffffffffffff1673ffffffffffffffffffffffffffffffffffffffff168152602001908152602001600020541415151561057b576040517f08c379a000000000000000000000000000000000000000000000000000000000815260040180806020018281038252601f8152602001807f596f7520646f6e7420686176652074686520726967687420746f20766f74650081525060200191505060405180910390fd5b60008310158015610590575060058054905083105b1515610604576040517f08c379a00000000000000000000000000000000000000000000000000000000081526004018080602001828103825260128152602001807f496e76616c69642070726f706f73616c4944000000000000000000000000000081525060200191505060405180910390fd5b6000600360008373ffffffffffffffffffffffffffffffffffffffff1673ffffffffffffffffffffffffffffffffffffffff1681526020019081526020016000205413156106c057600360008273ffffffffffffffffffffffffffffffffffffffff1673ffffffffffffffffffffffffffffffffffffffff16815260200190815260200160002054820160058481548110151561069d57fe5b9060005260206000209060020201600101600082825401925050819055506106ef565b816005848154811015156106d057fe5b9060005260206000209060020201600101600082825401925050819055505b6000600360008373ffffffffffffffffffffffffffffffffffffffff1673ffffffffffffffffffffffffffffffffffffffff16815260200190815260200160002081905550505050565b600060058281548110151561074a57fe5b9060005260206000209060020201600001549050919050565b6000600580549050905090565b600060058281548110151561078157fe5b9060005260206000209060020201600101549050919050565b600260009054906101000a900473ffffffffffffffffffffffffffffffffffffffff1673ffffffffffffffffffffffffffffffffffffffff163373ffffffffffffffffffffffffffffffffffffffff16141515610885576040517f08c379a00000000000000000000000000000000000000000000000000000000081526004018080602001828103825260288152602001807f4f6e6c79206372656174696e67204252462063616e2063616c6c20746869732081526020017f66756e6374696f6e00000000000000000000000000000000000000000000000081525060400191505060405180910390fd5b7fffffffffffffffffffffffffffffffffffffffffffffffffffffffffffffffff600360008373ffffffffffffffffffffffffffffffffffffffff1673ffffffffffffffffffffffffffffffffffffffff1681526020019081526020016000205414151561095b576040517f08c379a000000000000000000000000000000000000000000000000000000000815260040180806020018281038252601f8152602001807f596f7520617265206e6f7420616c6c6f77656420746f2064656c65676174650081525060200191505060405180910390fd5b7fffffffffffffffffffffffffffffffffffffffffffffffffffffffffffffffff600360008473ffffffffffffffffffffffffffffffffffffffff1673ffffffffffffffffffffffffffffffffffffffff16815260200190815260200160002054141515610a57576040517f08c379a000000000000000000000000000000000000000000000000000000000815260040180806020018281038252602e8152602001807f5468652064656c656761746565206973206e6f7420656c696761626c6520666f81526020017f7220612064656c65676174696f6e00000000000000000000000000000000000081525060400191505060405180910390fd5b8073ffffffffffffffffffffffffffffffffffffffff168273ffffffffffffffffffffffffffffffffffffffff1614151515610afb576040517f08c379a000000000000000000000000000000000000000000000000000000000815260040180806020018281038252601f8152602001807f596f752063616e6e6f742064656c656761746520746f20796f757273656c660081525060200191505060405180910390fd5b82600360008473ffffffffffffffffffffffffffffffffffffffff1673ffffffffffffffffffffffffffffffffffffffff168152602001908152602001600020819055506000600360008373ffffffffffffffffffffffffffffffffffffffff1673ffffffffffffffffffffffffffffffffffffffff16815260200190815260200160002081905550505050565b600080610b94610bd8565b905061270f81141515610bc957600581815481101515610bb057fe5b9060005260206000209060020201600001549150610bd3565b61270f9150610bd4565b5b5090565b60008060008060009150600090505b600580549050811015610c865781600582815481101515610c0457fe5b9060005260206000209060020201600101541115610c4b57600581815481101515610c2b57fe5b906000526020600020906002020160010154915080935060009250610c79565b81600582815481101515610c5b57fe5b9060005260206000209060020201600101541415610c7857600192505b5b8080600101915050610be7565b600115158315151415610c995761270f93505b505050905600a165627a7a723058202c644d82569078e733ab54dd1c756d39c3f96f8841af500180577aca79b121520029",
  "source": "\t\tpragma solidity ^0.4.19;\n\n/**\n * The Ballot contract does this and that...\n */\ncontract Ballot {\n\tuint startTime;\n\tuint durationTime;\n\taddress addressBRF;\n\tmapping (address => int) voteRights;\n\tstring public name;\n\n\tmodifier onlyBRF {\n\t\trequire(msg.sender == addressBRF, \"Only creating BRF can call this function\");\n\t\t_;\t\t\n\t}\n\n\tstruct Proposal {\n\t\tint name;\n\t\tuint voteCount;\n\t\t//hash = \"qe23rs!\"\n\t}\n\n\t\n\tProposal[] public proposals;\n\n\t/* Removed duration as input */\n\tconstructor (string _name, address[] adds, int[] proposalNames) public {\n\t\tname = _name; \n\t\taddressBRF = msg.sender;\n\t\t//durationTime = duration;\n\t\t//startTime = now; \n\t\tfor (uint i = 0; i < adds.length; i++) {\n\t\t\tvoteRights[adds[i]] = -1;\n\t\t}\n\n\t\tfor (i = 0; i < proposalNames.length; i++) {\n\t\t\tproposals.push(Proposal({\n\t\t\t\tname: proposalNames[i],\n\t\t\t\tvoteCount: 0\n\t\t\t\t}));\n\t\t}\n \t}\t\n\n\t/* This function takes as input the ID of a proposal and the weight of the voter. The function first\n\tchecks that messager has a voting right (-1) and that it hasn't already voted (0). If the voter has been \n\tdelegated another voters votes, the function will add these weights to the voters. Check that the ballot is\n\tstill live.\n\t@param proposalID id of proposal you want to vote for\n\t@param weight Weight of your vote.\n\t*/\n \tfunction vote (uint proposalID, uint weight, address voterAddress) public onlyBRF {\n \t\trequire(voteRights[voterAddress] != 0, \"You dont have the right to vote\");\n \t\trequire(proposalID >= 0 && proposalID < proposals.length, \"Invalid proposalID\");\n \t\t//require(now < startTime + durationTime, \"Ballot is not live anymore\");\n \t\tif (voteRights[voterAddress] > 0) {\n \t\t\tproposals[proposalID].voteCount += weight + uint(voteRights[voterAddress]);\n \t\t} else {\n \t\t\tproposals[proposalID].voteCount += weight;\n \t\t}\n \t\tvoteRights[voterAddress] = 0;\n \t}\n \t\n \t/* @dev This function let's a voter delegates its votes to another voter. The requirement being that\n \tthe delegater and the delegatee hasn't voted already and that the delegatee hasn't been delegated to by another\n \tmember. Check that the ballot is\n\tstill live.\n \t@param weight of the delegator\n \t@param address of the delegatee\n \t*/\n \tfunction delegate (uint weight, address to, address from) public onlyBRF{\n \t\trequire(voteRights[from] == -1, \"You are not allowed to delegate\");\n \t\trequire(voteRights[to] == -1, \"The delegatee is not eligable for a delegation\");\n \t\trequire(to != from, \"You cannot delegate to yourself\");\n \t\tvoteRights[to] = int(weight);\n \t\tvoteRights[from] = 0;\n \t}\n \t\n \t/* @dev Computes the winning proposal by counting all previous votes. */\n \tfunction winningProposalID () private view returns(uint proposalID_) {\n \t\t//require(now > durationTime + startTime, \"Ballot has not ended\");\n \t\tbool flag;\n \t\tuint winningVoteCount = 0;\n        for (uint p = 0; p < proposals.length; p++) {\n            if (proposals[p].voteCount > winningVoteCount) {\n                winningVoteCount = proposals[p].voteCount;\n                proposalID_ = p;\n                flag = false;\n            }\n            else if (proposals[p].voteCount == winningVoteCount){\n            \tflag = true;\n            }\n        }\n        if (flag == true){\n        \tproposalID_ =  9999; \n        }\n\n \t}\n \t\n \t/* @dev If the current time is past the final voting time then this function\n \twill retrieve the name of the winning proposal and send it back to the caller. If\n \tthe proposal involves a payment then the corresponding transaction to the winner will be\n \texecuted. */ \t\t\n\tfunction winnerName() public view\n            returns (int winnerName_)\n    {\n    \t//require(now - startTime > durationTime, \"Vote not yet ended.\");\n    \tuint winningIndex = winningProposalID();\n    \tif (winningIndex != 9999){\n        \twinnerName_ = proposals[winningIndex].name;\n        }\n        else {\n        \treturn 9999;\n        }\n    }\n\n\t/* @dev Returns the number of proposals for a certain ballot  \n\t@param _ballotId Id of the ballot\n\t*/\n\tfunction getNumProposals() view public returns(uint numB_){\n\t\tnumB_ = proposals.length;\n\t}\n\t\n\t/* @dev Returns the name of a proposal \n\t@param _propId Id of the proposal\n\t@returns name_ name of the proposal\n\t*/\n\tfunction getName(uint _propId) view public returns(int name_){\n\t\tname_ = proposals[_propId].name;\n\t}\t\n\n\t/* @dev Returns the number of votes a proposal has gotten  \n\t@param _propId Id of the proposal\n\t@returns voteCount_ Number of votes\n\t*/\n\tfunction getVoteCount(uint _propId) view public returns(uint voteCount_){\n\t\tvoteCount_ = proposals[_propId].voteCount;\n\t}\n}\n\n\t\t\t\t\t\t\t\t\t\t\t\t",
  "sourcePath": "/Users/David/Desktop/BostadsBlock/election/contracts/Ballot.sol",
  "compiler": {
    "name": "solc",
    "version": "0.4.23+commit.124ca40d.Emscripten.clang"
  },
  "schemaVersion": "2.0.0",
  "updatedAt": "2018-05-15T08:23:23.770Z"
}