{
  "contractName": "Ballot",
  "abi": [
    {
      "constant": true,
      "inputs": [
        {
          "name": "",
          "type": "uint256"
        }
      ],
      "name": "proposals",
      "outputs": [
        {
          "name": "name",
          "type": "bytes32"
        },
        {
          "name": "voteCount",
          "type": "uint256"
        }
      ],
      "payable": false,
      "stateMutability": "view",
      "type": "function"
    },
    {
      "inputs": [
        {
          "name": "adds",
          "type": "address[]"
        },
        {
          "name": "proposalNames",
          "type": "bytes32[]"
        },
        {
          "name": "duration",
          "type": "uint256"
        }
      ],
      "payable": false,
      "stateMutability": "nonpayable",
      "type": "constructor"
    },
    {
      "constant": false,
      "inputs": [
        {
          "name": "proposalID",
          "type": "uint256"
        },
        {
          "name": "weight",
          "type": "uint256"
        },
        {
          "name": "voterAddress",
          "type": "address"
        }
      ],
      "name": "vote",
      "outputs": [],
      "payable": false,
      "stateMutability": "nonpayable",
      "type": "function"
    },
    {
      "constant": false,
      "inputs": [
        {
          "name": "weight",
          "type": "uint256"
        },
        {
          "name": "to",
          "type": "address"
        },
        {
          "name": "from",
          "type": "address"
        }
      ],
      "name": "delegate",
      "outputs": [],
      "payable": false,
      "stateMutability": "nonpayable",
      "type": "function"
    },
    {
      "constant": true,
      "inputs": [],
      "name": "winnerName",
      "outputs": [
        {
          "name": "winnerName_",
          "type": "bytes32"
        }
      ],
      "payable": false,
      "stateMutability": "view",
      "type": "function"
    }
  ],
  "bytecode": "0x608060405234801561001057600080fd5b50604051610c55380380610c55833981018060405281019080805182019291906020018051820192919060200180519060200190929190505050600033600260006101000a81548173ffffffffffffffffffffffffffffffffffffffff021916908373ffffffffffffffffffffffffffffffffffffffff1602179055508160018190555042600081905550600090505b8351811015610131577fffffffffffffffffffffffffffffffffffffffffffffffffffffffffffffffff6003600086848151811015156100dc57fe5b9060200190602002015173ffffffffffffffffffffffffffffffffffffffff1673ffffffffffffffffffffffffffffffffffffffff1681526020019081526020016000208190555080806001019150506100a0565b600090505b82518110156101c75760046040805190810160405280858481518110151561015a57fe5b9060200190602002015160001916815260200160008152509080600181540180825580915050906001820390600052602060002090600202016000909192909190915060008201518160000190600019169055602082015181600101555050508080600101915050610136565b50505050610a7b806101da6000396000f300608060405260043610610062576000357c0100000000000000000000000000000000000000000000000000000000900463ffffffff168063013cf08b1461006757806350d91583146100b7578063d0e48cad1461010e578063e2ba53f01461017b575b600080fd5b34801561007357600080fd5b50610092600480360381019080803590602001909291905050506101ae565b6040518083600019166000191681526020018281526020019250505060405180910390f35b3480156100c357600080fd5b5061010c6004803603810190808035906020019092919080359060200190929190803573ffffffffffffffffffffffffffffffffffffffff1690602001909291905050506101e1565b005b34801561011a57600080fd5b5061017960048036038101908080359060200190929190803573ffffffffffffffffffffffffffffffffffffffff169060200190929190803573ffffffffffffffffffffffffffffffffffffffff169060200190929190505050610536565b005b34801561018757600080fd5b50610190610925565b60405180826000191660001916815260200191505060405180910390f35b6004818154811015156101bd57fe5b90600052602060002090600202016000915090508060000154908060010154905082565b600260009054906101000a900473ffffffffffffffffffffffffffffffffffffffff1673ffffffffffffffffffffffffffffffffffffffff163373ffffffffffffffffffffffffffffffffffffffff161415156102cc576040517f08c379a00000000000000000000000000000000000000000000000000000000081526004018080602001828103825260288152602001807f4f6e6c79206372656174696e67204252462063616e2063616c6c20746869732081526020017f66756e6374696f6e00000000000000000000000000000000000000000000000081525060400191505060405180910390fd5b6000600360008373ffffffffffffffffffffffffffffffffffffffff1673ffffffffffffffffffffffffffffffffffffffff1681526020019081526020016000205414151515610384576040517f08c379a000000000000000000000000000000000000000000000000000000000815260040180806020018281038252601f8152602001807f596f7520646f6e7420686176652074686520726967687420746f20766f74650081525060200191505060405180910390fd5b6001546000540142101515610401576040517f08c379a000000000000000000000000000000000000000000000000000000000815260040180806020018281038252601a8152602001807f42616c6c6f74206973206e6f74206c69766520616e796d6f726500000000000081525060200191505060405180910390fd5b6000600360008373ffffffffffffffffffffffffffffffffffffffff1673ffffffffffffffffffffffffffffffffffffffff1681526020019081526020016000205413156104bd57600360008273ffffffffffffffffffffffffffffffffffffffff1673ffffffffffffffffffffffffffffffffffffffff16815260200190815260200160002054820160048481548110151561049a57fe5b9060005260206000209060020201600101600082825401925050819055506104ec565b816004848154811015156104cd57fe5b9060005260206000209060020201600101600082825401925050819055505b6000600360008373ffffffffffffffffffffffffffffffffffffffff1673ffffffffffffffffffffffffffffffffffffffff16815260200190815260200160002081905550505050565b600260009054906101000a900473ffffffffffffffffffffffffffffffffffffffff1673ffffffffffffffffffffffffffffffffffffffff163373ffffffffffffffffffffffffffffffffffffffff16141515610621576040517f08c379a00000000000000000000000000000000000000000000000000000000081526004018080602001828103825260288152602001807f4f6e6c79206372656174696e67204252462063616e2063616c6c20746869732081526020017f66756e6374696f6e00000000000000000000000000000000000000000000000081525060400191505060405180910390fd5b7fffffffffffffffffffffffffffffffffffffffffffffffffffffffffffffffff600360008373ffffffffffffffffffffffffffffffffffffffff1673ffffffffffffffffffffffffffffffffffffffff168152602001908152602001600020541415156106f7576040517f08c379a000000000000000000000000000000000000000000000000000000000815260040180806020018281038252601f8152602001807f596f7520617265206e6f7420616c6c6f77656420746f2064656c65676174650081525060200191505060405180910390fd5b7fffffffffffffffffffffffffffffffffffffffffffffffffffffffffffffffff600360008473ffffffffffffffffffffffffffffffffffffffff1673ffffffffffffffffffffffffffffffffffffffff168152602001908152602001600020541415156107f3576040517f08c379a000000000000000000000000000000000000000000000000000000000815260040180806020018281038252602e8152602001807f5468652064656c656761746565206973206e6f7420656c696761626c6520666f81526020017f7220612064656c65676174696f6e00000000000000000000000000000000000081525060400191505060405180910390fd5b8073ffffffffffffffffffffffffffffffffffffffff168273ffffffffffffffffffffffffffffffffffffffff1614151515610897576040517f08c379a000000000000000000000000000000000000000000000000000000000815260040180806020018281038252601f8152602001807f596f752063616e6e6f742064656c656761746520746f20796f757273656c660081525060200191505060405180910390fd5b82600360008473ffffffffffffffffffffffffffffffffffffffff1673ffffffffffffffffffffffffffffffffffffffff168152602001908152602001600020819055506000600360008373ffffffffffffffffffffffffffffffffffffffff1673ffffffffffffffffffffffffffffffffffffffff16815260200190815260200160002081905550505050565b600060015460005442031115156109a4576040517f08c379a00000000000000000000000000000000000000000000000000000000081526004018080602001828103825260138152602001807f566f7465206e6f742079657420656e6465642e0000000000000000000000000081525060200191505060405180910390fd5b60046109ae6109d1565b8154811015156109ba57fe5b906000526020600020906002020160000154905090565b6000806000809150600090505b600160048054905003811015610a4a57816004828154811015156109fe57fe5b9060005260206000209060020201600101541115610a3d57600481815481101515610a2557fe5b90600052602060002090600202016001015491508092505b80806001019150506109de565b5050905600a165627a7a72305820a890edd1b30c566341931470af5805c87058b70f0076ca62a1bd50b21d1b99860029",
  "source": "pragma solidity ^0.4.19;\n\n/**\n * The Ballot contract does this and that...\n */\ncontract Ballot {\n\tuint startTime;\n\tuint durationTime;\n\taddress addressBRF;\n\tmapping (address => int) voteRights;\n\n\tmodifier onlyBRF {\n\t\trequire(msg.sender == addressBRF, \"Only creating BRF can call this function\");\n\t\t_;\t\t\n\t}\n\n\tstruct Proposal {\n\t\tbytes32 name;\n\t\tuint voteCount;\n\t\t//hash = \"qe23rs!\"\n\t}\n\n\tProposal[] public proposals;\n\n\tconstructor (address[] adds, bytes32[] proposalNames, uint duration) public {\n\t\taddressBRF = msg.sender;\n\t\tdurationTime = duration;\n\t\tstartTime = now; \n\t\tfor (uint i = 0; i < adds.length; i++) {\n\t\t\tvoteRights[adds[i]] = -1;\n\t\t}\n\n\t\tfor (i = 0; i < proposalNames.length; i++) {\n\t\t\tproposals.push(Proposal({\n\t\t\t\tname: proposalNames[i],\n\t\t\t\tvoteCount: 0\n\t\t\t\t}));\n\t\t}\n \t}\t\n\n\t/* This function takes as input the ID of a proposal and the weight of the voter. The function first\n\tchecks that messager has a voting right (-1) and that it hasn't already voted (0). If the voter has been \n\tdelegated another voters votes, the function will add these weights to the voters. Check that the ballot is\n\tstill live.\n\t@param proposalID id of proposal you want to vote for\n\t@param weight Weight of your vote.\n\t*/\n \tfunction vote (uint proposalID, uint weight, address voterAddress) public onlyBRF {\n \t\trequire(voteRights[voterAddress] != 0, \"You dont have the right to vote\");\n \t\trequire(now < startTime + durationTime, \"Ballot is not live anymore\");\n \t\tif (voteRights[voterAddress] > 0) {\n \t\t\tproposals[proposalID].voteCount += weight + uint(voteRights[voterAddress]);\n \t\t} else {\n \t\t\tproposals[proposalID].voteCount += weight;\n \t\t}\n \t\tvoteRights[voterAddress] = 0;\n \t}\n \t\n \t/* @dev This function let's a voter delegates its votes to another voter. The requirement being that\n \tthe delegater and the delegatee hasn't voted already and that the delegatee hasn't been delegated to by another\n \tmember. Check that the ballot is\n\tstill live.\n \t@param weight of the delegator\n \t@param address of the delegatee\n \t*/\n \tfunction delegate (uint weight, address to, address from) public onlyBRF{\n \t\trequire(voteRights[from] == -1, \"You are not allowed to delegate\");\n \t\trequire(voteRights[to] == -1, \"The delegatee is not eligable for a delegation\");\n \t\trequire(to != from, \"You cannot delegate to yourself\");\n \t\tvoteRights[to] = int(weight);\n \t\tvoteRights[from] = 0;\n \t}\n \t\n \t/* @dev Computes the winning proposal by counting all previous votes. */\n \tfunction winningProposalID () private view returns(uint proposalID_) {\n \t\t//require(now > durationTime + startTime, \"Ballot has not ended\");\n \t\tuint winningVoteCount = 0;\n        for (uint p = 0; p < proposals.length-1; p++) {\n            if (proposals[p].voteCount > winningVoteCount) {\n                winningVoteCount = proposals[p].voteCount;\n                proposalID_ = p;\n            }\n        }\n \t}\n \t\n \t/* @dev If the current time is past the final voting time then this function\n \twill retrieve the name of the winning proposal and send it back to the caller. If\n \tthe proposal involves a payment then the corresponding transaction to the winner will be\n \texecuted. */ \t\t\n\tfunction winnerName() public view\n            returns (bytes32 winnerName_)\n    {\n    \trequire(now - startTime > durationTime, \"Vote not yet ended.\");\n        winnerName_ = proposals[winningProposalID()].name;\n    }\n\n}\n\n\t\t\t\t\t\t\t\t\t\t\t\t",
  "sourcePath": "/Users/Shad/Desktop/projekt/election/contracts/Ballot.sol",
  "compiler": {
    "name": "solc",
    "version": "0.4.23+commit.124ca40d.Emscripten.clang"
  },
  "schemaVersion": "2.0.0",
  "updatedAt": "2018-05-03T09:11:41.690Z"
}