{
  "contractName": "BRF",
  "abi": [
    {
      "constant": true,
      "inputs": [],
      "name": "name",
      "outputs": [
        {
          "name": "",
          "type": "string"
        }
      ],
      "payable": false,
      "stateMutability": "view",
      "type": "function"
    },
    {
      "constant": true,
      "inputs": [
        {
          "name": "",
          "type": "uint256"
        }
      ],
      "name": "ballots",
      "outputs": [
        {
          "name": "",
          "type": "address"
        }
      ],
      "payable": false,
      "stateMutability": "view",
      "type": "function"
    },
    {
      "constant": true,
      "inputs": [],
      "name": "sumWeights",
      "outputs": [
        {
          "name": "",
          "type": "uint256"
        }
      ],
      "payable": false,
      "stateMutability": "view",
      "type": "function"
    },
    {
      "constant": true,
      "inputs": [],
      "name": "ballotStatus",
      "outputs": [
        {
          "name": "",
          "type": "uint256"
        }
      ],
      "payable": false,
      "stateMutability": "view",
      "type": "function"
    },
    {
      "constant": true,
      "inputs": [],
      "name": "chairPerson",
      "outputs": [
        {
          "name": "",
          "type": "address"
        }
      ],
      "payable": false,
      "stateMutability": "view",
      "type": "function"
    },
    {
      "inputs": [],
      "payable": false,
      "stateMutability": "nonpayable",
      "type": "constructor"
    },
    {
      "anonymous": false,
      "inputs": [
        {
          "indexed": true,
          "name": "_candidateId",
          "type": "uint256"
        }
      ],
      "name": "votedEvent",
      "type": "event"
    },
    {
      "constant": false,
      "inputs": [
        {
          "name": "weight",
          "type": "uint256"
        },
        {
          "name": "currAdd",
          "type": "address"
        }
      ],
      "name": "giveRightToVote",
      "outputs": [],
      "payable": false,
      "stateMutability": "nonpayable",
      "type": "function"
    },
    {
      "constant": false,
      "inputs": [
        {
          "name": "newOwner",
          "type": "address"
        }
      ],
      "name": "transferOwnership",
      "outputs": [],
      "payable": false,
      "stateMutability": "nonpayable",
      "type": "function"
    },
    {
      "constant": false,
      "inputs": [
        {
          "name": "name",
          "type": "string"
        },
        {
          "name": "proposalNames",
          "type": "int256[]"
        }
      ],
      "name": "createBallot",
      "outputs": [],
      "payable": false,
      "stateMutability": "nonpayable",
      "type": "function"
    },
    {
      "constant": false,
      "inputs": [
        {
          "name": "ballotID",
          "type": "uint256"
        },
        {
          "name": "proposalID",
          "type": "uint256"
        }
      ],
      "name": "vote",
      "outputs": [],
      "payable": false,
      "stateMutability": "nonpayable",
      "type": "function"
    },
    {
      "constant": false,
      "inputs": [
        {
          "name": "ballotID",
          "type": "uint256"
        },
        {
          "name": "to",
          "type": "address"
        }
      ],
      "name": "delegateTo",
      "outputs": [],
      "payable": false,
      "stateMutability": "nonpayable",
      "type": "function"
    },
    {
      "constant": true,
      "inputs": [
        {
          "name": "ballotID",
          "type": "uint256"
        }
      ],
      "name": "getWinner",
      "outputs": [
        {
          "name": "winnerName_",
          "type": "int256"
        }
      ],
      "payable": false,
      "stateMutability": "view",
      "type": "function"
    },
    {
      "constant": true,
      "inputs": [],
      "name": "getBallotSizes",
      "outputs": [
        {
          "name": "numOfBallots_",
          "type": "uint256"
        }
      ],
      "payable": false,
      "stateMutability": "view",
      "type": "function"
    },
    {
      "constant": true,
      "inputs": [],
      "name": "getNumOfAddresses",
      "outputs": [
        {
          "name": "numAdd",
          "type": "uint256"
        }
      ],
      "payable": false,
      "stateMutability": "view",
      "type": "function"
    },
    {
      "constant": true,
      "inputs": [
        {
          "name": "ballotID",
          "type": "uint256"
        }
      ],
      "name": "getBallotName",
      "outputs": [
        {
          "name": "name_",
          "type": "string"
        }
      ],
      "payable": false,
      "stateMutability": "view",
      "type": "function"
    }
  ],
  "bytecode": "0x60806040523480156200001157600080fd5b50600060078190555033600360006101000a81548173ffffffffffffffffffffffffffffffffffffffff021916908373ffffffffffffffffffffffffffffffffffffffff16021790555060006004819055506040805190810160405280600c81526020017f42524620536f6c726f73656e000000000000000000000000000000000000000081525060059080519060200190620000b0929190620000b7565b5062000166565b828054600181600116156101000203166002900490600052602060002090601f016020900481019282601f10620000fa57805160ff19168380011785556200012b565b828001600101855582156200012b579182015b828111156200012a5782518255916020019190600101906200010d565b5b5090506200013a91906200013e565b5090565b6200016391905b808211156200015f57600081600090555060010162000145565b5090565b90565b61216b80620001766000396000f300608060405260043610620000df576000357c0100000000000000000000000000000000000000000000000000000000900463ffffffff168063022eb10214620000e457806306fdde0314620001935780634129b2c9146200022957806344f24b83146200026d5780635c632b38146200029b578063634a26f6146200030b578063b384abef1462000339578063c31026c71462000373578063cd776e2b14620003a1578063cf2baa5b14620003cf578063d4d4b5ac146200047b578063e5c9a8d414620004d5578063f2fde38b1462000525578063fc7881c6146200056b575b600080fd5b348015620000f157600080fd5b5062000191600480360381019080803590602001908201803590602001908080601f016020809104026020016040519081016040528093929190818152602001838380828437820191505050505050919291929080359060200190820180359060200190808060200260200160405190810160405280939291908181526020018383602002808284378201915050505050509192919290505050620005bb565b005b348015620001a057600080fd5b50620001ab62000857565b6040518080602001828103825283818151815260200191508051906020019080838360005b83811015620001ed578082015181840152602081019050620001d0565b50505050905090810190601f1680156200021b5780820380516001836020036101000a031916815260200191505b509250505060405180910390f35b3480156200023657600080fd5b506200025760048036038101908080359060200190929190505050620008f9565b6040518082815260200191505060405180910390f35b3480156200027a57600080fd5b5062000285620009de565b6040518082815260200191505060405180910390f35b348015620002a857600080fd5b50620002c960048036038101908080359060200190929190505050620009eb565b604051808273ffffffffffffffffffffffffffffffffffffffff1673ffffffffffffffffffffffffffffffffffffffff16815260200191505060405180910390f35b3480156200031857600080fd5b506200032362000a2a565b6040518082815260200191505060405180910390f35b3480156200034657600080fd5b5062000371600480360381019080803590602001909291908035906020019092919050505062000a30565b005b3480156200038057600080fd5b506200038b62000b71565b6040518082815260200191505060405180910390f35b348015620003ae57600080fd5b50620003b962000b95565b6040518082815260200191505060405180910390f35b348015620003dc57600080fd5b50620003fd6004803603810190808035906020019092919050505062000b9b565b6040518080602001828103825283818151815260200191508051906020019080838360005b838110156200043f57808201518184015260208101905062000422565b50505050905090810190601f1680156200046d5780820380516001836020036101000a031916815260200191505b509250505060405180910390f35b3480156200048857600080fd5b506200049362000cd9565b604051808273ffffffffffffffffffffffffffffffffffffffff1673ffffffffffffffffffffffffffffffffffffffff16815260200191505060405180910390f35b348015620004e257600080fd5b506200052360048036038101908080359060200190929190803573ffffffffffffffffffffffffffffffffffffffff16906020019092919050505062000cff565b005b3480156200053257600080fd5b5062000569600480360381019080803573ffffffffffffffffffffffffffffffffffffffff16906020019092919050505062001017565b005b3480156200057857600080fd5b50620005b960048036038101908080359060200190929190803573ffffffffffffffffffffffffffffffffffffffff16906020019092919050505062001297565b005b600360009054906101000a900473ffffffffffffffffffffffffffffffffffffffff1673ffffffffffffffffffffffffffffffffffffffff163373ffffffffffffffffffffffffffffffffffffffff1614151562000681576040517f08c379a00000000000000000000000000000000000000000000000000000000081526004018080602001828103825260188152602001807f596f752063616e742063726561746520612062616c6c6f74000000000000000081525060200191505060405180910390fd5b60016007819055506006826001836200069962001404565b80806020018060200180602001848103845287818151815260200191508051906020019080838360005b83811015620006e0578082015181840152602081019050620006c3565b50505050905090810190601f1680156200070e5780820380516001836020036101000a031916815260200191505b5084810383528681815481526020019150805480156200078457602002820191906000526020600020905b8160009054906101000a900473ffffffffffffffffffffffffffffffffffffffff1673ffffffffffffffffffffffffffffffffffffffff168152602001906001019080831162000739575b5050848103825285818151815260200191508051906020019060200280838360005b83811015620007c3578082015181840152602081019050620007a6565b505050509050019650505050505050604051809103906000f080158015620007ef573d6000803e3d6000fd5b5090806001815401808255809150509060018203906000526020600020016000909192909190916101000a81548173ffffffffffffffffffffffffffffffffffffffff021916908373ffffffffffffffffffffffffffffffffffffffff160217905550505050565b60058054600181600116156101000203166002900480601f016020809104026020016040519081016040528092919081815260200182805460018160011615610100020316600290048015620008f15780601f10620008c557610100808354040283529160200191620008f1565b820191906000526020600020905b815481529060010190602001808311620008d357829003601f168201915b505050505081565b60006006828154811015156200090b57fe5b9060005260206000200160009054906101000a900473ffffffffffffffffffffffffffffffffffffffff1673ffffffffffffffffffffffffffffffffffffffff1663e2ba53f06040518163ffffffff167c0100000000000000000000000000000000000000000000000000000000028152600401602060405180830381600087803b1580156200099a57600080fd5b505af1158015620009af573d6000803e3d6000fd5b505050506040513d6020811015620009c657600080fd5b81019080805190602001909291905050509050919050565b6000600180549050905090565b600681815481101515620009fb57fe5b906000526020600020016000915054906101000a900473ffffffffffffffffffffffffffffffffffffffff1681565b60045481565b60068281548110151562000a4057fe5b9060005260206000200160009054906101000a900473ffffffffffffffffffffffffffffffffffffffff1673ffffffffffffffffffffffffffffffffffffffff166350d91583826000803373ffffffffffffffffffffffffffffffffffffffff1673ffffffffffffffffffffffffffffffffffffffff16815260200190815260200160002054336040518463ffffffff167c0100000000000000000000000000000000000000000000000000000000028152600401808481526020018381526020018273ffffffffffffffffffffffffffffffffffffffff1673ffffffffffffffffffffffffffffffffffffffff1681526020019350505050600060405180830381600087803b15801562000b5457600080fd5b505af115801562000b69573d6000803e3d6000fd5b505050505050565b60006001600754141562000b8d57600680549050905062000b92565b600090505b90565b60075481565b606060068281548110151562000bad57fe5b9060005260206000200160009054906101000a900473ffffffffffffffffffffffffffffffffffffffff1673ffffffffffffffffffffffffffffffffffffffff166306fdde036040518163ffffffff167c0100000000000000000000000000000000000000000000000000000000028152600401600060405180830381600087803b15801562000c3c57600080fd5b505af115801562000c51573d6000803e3d6000fd5b505050506040513d6000823e3d601f19601f82011682018060405250602081101562000c7c57600080fd5b81019080805164010000000081111562000c9557600080fd5b8281019050602081018481111562000cac57600080fd5b815185600182028301116401000000008211171562000cca57600080fd5b50509291905050509050919050565b600360009054906101000a900473ffffffffffffffffffffffffffffffffffffffff1681565b60008211151562000d9e576040517f08c379a000000000000000000000000000000000000000000000000000000000815260040180806020018281038252602f8152602001807f43616e6e6f742061737369676e206e6f6e706f7369746976652076616c75657381526020017f20746f206f75722077656967687473000000000000000000000000000000000081525060400191505060405180910390fd5b600360009054906101000a900473ffffffffffffffffffffffffffffffffffffffff1673ffffffffffffffffffffffffffffffffffffffff163373ffffffffffffffffffffffffffffffffffffffff1614151562000e8a576040517f08c379a000000000000000000000000000000000000000000000000000000000815260040180806020018281038252602a8152602001807f596f7520646f206e6f742068617665207065726d697373696f6e20746f20616481526020017f642061206d656d6265720000000000000000000000000000000000000000000081525060400191505060405180910390fd5b606482600454011115151562000f2e576040517f08c379a00000000000000000000000000000000000000000000000000000000081526004018080602001828103825260298152602001807f53756d206f6620616c6c20776569676874732065786365656420746865206c6981526020017f6d6974202831303029000000000000000000000000000000000000000000000081525060400191505060405180910390fd5b816000808373ffffffffffffffffffffffffffffffffffffffff1673ffffffffffffffffffffffffffffffffffffffff168152602001908152602001600020819055508160046000828254019250508190555060018190806001815401808255809150509060018203906000526020600020016000909192909190916101000a81548173ffffffffffffffffffffffffffffffffffffffff021916908373ffffffffffffffffffffffffffffffffffffffff1602179055505060028290806001815401808255809150509060018203906000526020600020016000909192909190915055505050565b60003373ffffffffffffffffffffffffffffffffffffffff168273ffffffffffffffffffffffffffffffffffffffff1614151515620010e4576040517f08c379a000000000000000000000000000000000000000000000000000000000815260040180806020018281038252602d8152602001807f596f752063616e6e6f74207472616e7366657220746865206f776e657273686981526020017f7020746f20796f757273656c660000000000000000000000000000000000000081525060400191505060405180910390fd5b6000803373ffffffffffffffffffffffffffffffffffffffff1673ffffffffffffffffffffffffffffffffffffffff168152602001908152602001600020546000808473ffffffffffffffffffffffffffffffffffffffff1673ffffffffffffffffffffffffffffffffffffffff1681526020019081526020016000208190555060008060003373ffffffffffffffffffffffffffffffffffffffff1673ffffffffffffffffffffffffffffffffffffffff16815260200190815260200160002081905550600090505b60018054905081101562001293573373ffffffffffffffffffffffffffffffffffffffff16600182815481101515620011e357fe5b9060005260206000200160009054906101000a900473ffffffffffffffffffffffffffffffffffffffff1673ffffffffffffffffffffffffffffffffffffffff1614156200128557816001828154811015156200123c57fe5b9060005260206000200160006101000a81548173ffffffffffffffffffffffffffffffffffffffff021916908373ffffffffffffffffffffffffffffffffffffffff1602179055505b8080600101915050620011ae565b5050565b600682815481101515620012a757fe5b9060005260206000200160009054906101000a900473ffffffffffffffffffffffffffffffffffffffff1673ffffffffffffffffffffffffffffffffffffffff1663d0e48cad6000803373ffffffffffffffffffffffffffffffffffffffff1673ffffffffffffffffffffffffffffffffffffffff1681526020019081526020016000205483336040518463ffffffff167c0100000000000000000000000000000000000000000000000000000000028152600401808481526020018373ffffffffffffffffffffffffffffffffffffffff1673ffffffffffffffffffffffffffffffffffffffff1681526020018273ffffffffffffffffffffffffffffffffffffffff1673ffffffffffffffffffffffffffffffffffffffff1681526020019350505050600060405180830381600087803b158015620013e757600080fd5b505af1158015620013fc573d6000803e3d6000fd5b505050505050565b604051610d2a8062001416833901905600608060405234801561001057600080fd5b50604051610d2a380380610d2a8339810180604052810190808051820192919060200180518201929190602001805182019291905050506000836004908051906020019061005f9291906101cc565b5033600260006101000a81548173ffffffffffffffffffffffffffffffffffffffff021916908373ffffffffffffffffffffffffffffffffffffffff160217905550600090505b8251811015610137577fffffffffffffffffffffffffffffffffffffffffffffffffffffffffffffffff6003600085848151811015156100e257fe5b9060200190602002015173ffffffffffffffffffffffffffffffffffffffff1673ffffffffffffffffffffffffffffffffffffffff1681526020019081526020016000208190555080806001019150506100a6565b600090505b81518110156101c35760056040805190810160405280848481518110151561016057fe5b9060200190602002015181526020016000815250908060018154018082558091505090600182039060005260206000209060020201600090919290919091506000820151816000015560208201518160010155505050808060010191505061013c565b50505050610271565b828054600181600116156101000203166002900490600052602060002090601f016020900481019282601f1061020d57805160ff191683800117855561023b565b8280016001018555821561023b579182015b8281111561023a57825182559160200191906001019061021f565b5b509050610248919061024c565b5090565b61026e91905b8082111561026a576000816000905550600101610252565b5090565b90565b610aaa806102806000396000f30060806040526004361061006d576000357c0100000000000000000000000000000000000000000000000000000000900463ffffffff168063013cf08b1461007257806306fdde03146100ba57806350d915831461014a578063d0e48cad146101a1578063e2ba53f01461020e575b600080fd5b34801561007e57600080fd5b5061009d60048036038101908080359060200190929190505050610239565b604051808381526020018281526020019250505060405180910390f35b3480156100c657600080fd5b506100cf61026c565b6040518080602001828103825283818151815260200191508051906020019080838360005b8381101561010f5780820151818401526020810190506100f4565b50505050905090810190601f16801561013c5780820380516001836020036101000a031916815260200191505b509250505060405180910390f35b34801561015657600080fd5b5061019f6004803603810190808035906020019092919080359060200190929190803573ffffffffffffffffffffffffffffffffffffffff16906020019092919050505061030a565b005b3480156101ad57600080fd5b5061020c60048036038101908080359060200190929190803573ffffffffffffffffffffffffffffffffffffffff169060200190929190803573ffffffffffffffffffffffffffffffffffffffff1690602001909291905050506105e2565b005b34801561021a57600080fd5b506102236109d1565b6040518082815260200191505060405180910390f35b60058181548110151561024857fe5b90600052602060002090600202016000915090508060000154908060010154905082565b60048054600181600116156101000203166002900480601f0160208091040260200160405190810160405280929190818152602001828054600181600116156101000203166002900480156103025780601f106102d757610100808354040283529160200191610302565b820191906000526020600020905b8154815290600101906020018083116102e557829003601f168201915b505050505081565b600260009054906101000a900473ffffffffffffffffffffffffffffffffffffffff1673ffffffffffffffffffffffffffffffffffffffff163373ffffffffffffffffffffffffffffffffffffffff161415156103f5576040517f08c379a00000000000000000000000000000000000000000000000000000000081526004018080602001828103825260288152602001807f4f6e6c79206372656174696e67204252462063616e2063616c6c20746869732081526020017f66756e6374696f6e00000000000000000000000000000000000000000000000081525060400191505060405180910390fd5b6000600360008373ffffffffffffffffffffffffffffffffffffffff1673ffffffffffffffffffffffffffffffffffffffff16815260200190815260200160002054141515156104ad576040517f08c379a000000000000000000000000000000000000000000000000000000000815260040180806020018281038252601f8152602001807f596f7520646f6e7420686176652074686520726967687420746f20766f74650081525060200191505060405180910390fd5b6000600360008373ffffffffffffffffffffffffffffffffffffffff1673ffffffffffffffffffffffffffffffffffffffff16815260200190815260200160002054131561056957600360008273ffffffffffffffffffffffffffffffffffffffff1673ffffffffffffffffffffffffffffffffffffffff16815260200190815260200160002054820160058481548110151561054657fe5b906000526020600020906002020160010160008282540192505081905550610598565b8160058481548110151561057957fe5b9060005260206000209060020201600101600082825401925050819055505b6000600360008373ffffffffffffffffffffffffffffffffffffffff1673ffffffffffffffffffffffffffffffffffffffff16815260200190815260200160002081905550505050565b600260009054906101000a900473ffffffffffffffffffffffffffffffffffffffff1673ffffffffffffffffffffffffffffffffffffffff163373ffffffffffffffffffffffffffffffffffffffff161415156106cd576040517f08c379a00000000000000000000000000000000000000000000000000000000081526004018080602001828103825260288152602001807f4f6e6c79206372656174696e67204252462063616e2063616c6c20746869732081526020017f66756e6374696f6e00000000000000000000000000000000000000000000000081525060400191505060405180910390fd5b7fffffffffffffffffffffffffffffffffffffffffffffffffffffffffffffffff600360008373ffffffffffffffffffffffffffffffffffffffff1673ffffffffffffffffffffffffffffffffffffffff168152602001908152602001600020541415156107a3576040517f08c379a000000000000000000000000000000000000000000000000000000000815260040180806020018281038252601f8152602001807f596f7520617265206e6f7420616c6c6f77656420746f2064656c65676174650081525060200191505060405180910390fd5b7fffffffffffffffffffffffffffffffffffffffffffffffffffffffffffffffff600360008473ffffffffffffffffffffffffffffffffffffffff1673ffffffffffffffffffffffffffffffffffffffff1681526020019081526020016000205414151561089f576040517f08c379a000000000000000000000000000000000000000000000000000000000815260040180806020018281038252602e8152602001807f5468652064656c656761746565206973206e6f7420656c696761626c6520666f81526020017f7220612064656c65676174696f6e00000000000000000000000000000000000081525060400191505060405180910390fd5b8073ffffffffffffffffffffffffffffffffffffffff168273ffffffffffffffffffffffffffffffffffffffff1614151515610943576040517f08c379a000000000000000000000000000000000000000000000000000000000815260040180806020018281038252601f8152602001807f596f752063616e6e6f742064656c656761746520746f20796f757273656c660081525060200191505060405180910390fd5b82600360008473ffffffffffffffffffffffffffffffffffffffff1673ffffffffffffffffffffffffffffffffffffffff168152602001908152602001600020819055506000600360008373ffffffffffffffffffffffffffffffffffffffff1673ffffffffffffffffffffffffffffffffffffffff16815260200190815260200160002081905550505050565b600060056109dd610a00565b8154811015156109e957fe5b906000526020600020906002020160000154905090565b6000806000809150600090505b600160058054905003811015610a795781600582815481101515610a2d57fe5b9060005260206000209060020201600101541115610a6c57600581815481101515610a5457fe5b90600052602060002090600202016001015491508092505b8080600101915050610a0d565b5050905600a165627a7a72305820ec24e3e1e8672fa1860d8de93ca81881fd04204d3b45da8c5ae3dfca26544d640029a165627a7a72305820ec7d5a8f524f81d7c5ce84124b04317d499b30709c1e6251e55efec8b2befbc80029",
  "source": "pragma solidity ^0.4.19;\n\n/* TODO:\n\tTomorrow we check how we test. Try setting it up on remix and trying with metamask and after that\n\ttrying to get together an app.\n\n\tShould we implement a timelimit, in that case where (when to start/stop)?\n\tHow to retrieve the winning proposal in BRF.\n\n\tHow does the has look like (format, size etc.)?\n*/\n\nimport \"./Ballot.sol\";\n/**\n * The BRF contract does this and that...\n */\ncontract BRF {\n\n\tmapping (address => uint) private memberWeights;\t//Same thing as weights\n\taddress[] private addresses;\n\tuint[] private weights;\n\taddress public chairPerson;\n\tuint public sumWeights;\n\tstring public name;\n\n\tBallot[] public ballots;\n\tuint public ballotStatus;\n\n    // voted event\n    event votedEvent (\n        uint indexed _candidateId\n    );\n\n\n\n\tconstructor () public{\n\t\tballotStatus = 0;\n\t\tchairPerson = msg.sender;\n\t\tsumWeights = 0;\n\t\tname = \"BRF Solrosen\";\n\t\t// weights = [25, 5, 2, 35, 15];\n\t\t// addresses = [0xca35b7d915458ef540ade6068dfe2f44e8fa733c, 0x14723a09acff6d2a60dcdf7aa4aff308fddc160c, 0x4b0897b0513fdc7c541b6d9d7e929c4e5364d2db, 0x583031d1113ad414f02576bd6afabfb302140225, 0xdd870fa1b7c4700f2bd7f44238821c26f7392148];\n\t\t// for (uint i = 0; i<weights.length; i++) {\n\t\t// \tgiveRightToVote(weights[i], addresses[i]);\n\t\t// }\n\t\t// int[] storage input;\n\t\t// input.push(1);\n\t\t// input.push(2);\n\t\t// createBallot(input);\n\t}\n\n\n\t/* This function gets passed tuples of weights and addresses. Only the chairperson\n\twill be allowed to call this function. The function assigns a weight to a certain address.\n\tWhen a call is made later, the address will be able to vote with its shares. */\n\tfunction giveRightToVote(uint weight, address currAdd) public {\n\n\t\trequire (weight > 0, \"Cannot assign nonpositive values to our weights\");\n\t\trequire (msg.sender == chairPerson, \"You do not have permission to add a member\");\n\n\t\t/*This might be a problematic requirement if the weights change (mbe we make some \n\t\tappartments smaller etc.) */\n\t\trequire(sumWeights + weight <= 100, \"Sum of all weights exceed the limit (100)\"); \n\n\t\tmemberWeights[currAdd] = weight;\n\t\tsumWeights += weight;\n\t\taddresses.push(currAdd);\n\t\tweights.push(weight);\n\t}\n\n\n\t/* Transfer the ownership of one apartment from one owner to another */\n\tfunction transferOwnership(address newOwner) public {\n\t\trequire(newOwner != msg.sender, \"You cannot transfer the ownership to yourself\");\n\t\tmemberWeights[newOwner] = memberWeights[msg.sender];\n\t\tmemberWeights[msg.sender] = 0;\n\n\t\tfor (uint i = 0; i<addresses.length; i++) {\n\t\t\tif (addresses[i] == msg.sender) {\n\t\t\t\taddresses[i] = newOwner;\n\t\t\t}\n\t\t}\n\t}\n\n\n\t/* @dev Creates a new ballot and pushes it into the global array called ballots.\n\t@param proposalNames array with proposalnames \n\t*/\n\tfunction createBallot(string name, int[] proposalNames) public {\n\t\trequire(msg.sender == chairPerson, \"You cant create a ballot\");\n\t\tballotStatus = 1;\n\t\tballots.push(new Ballot(name, addresses, proposalNames));\n\t}\n\n\t/* \n\t@dev Votes for a proposal in a given ballot\n\t@param ballotID The id of the ballot we are voting on\n\t@param proposalID The id of the proposal we are voting on\n\t*/\n\tfunction vote(uint ballotID, uint proposalID) public {\n\t\tballots[ballotID].vote(proposalID, memberWeights[msg.sender], msg.sender);\n\t}\n\n\t/* @dev Let's a member delegates it's shares in a certain ballot to another\n\tmember.\n\t@param ballotID The ID of the ballot in which it wants to delegate.\n\t@param to The adress of the person it wants to delegate to.\n\t*/\n\tfunction delegateTo(uint ballotID, address to) public {\n\t\tballots[ballotID].delegate(memberWeights[msg.sender], to, msg.sender);\n\t}\n\n\t/* @dev Calls the ballot to retrieve the winner and sets in motion the transaction\n\tassociated with the winning proposal.\n\t@param ballotID The id of the associated\n\t*/\n\tfunction getWinner(uint ballotID) public view returns (int winnerName_){\n\t\twinnerName_ = ballots[ballotID].winnerName();\n\t}\n\n\t/* test help functions */\n\n\t/* Returns the number of ballots */\n\tfunction getBallotSizes() constant public returns (uint numOfBallots_) {\n\t\tif (ballotStatus == 1) {\n\t\t\tnumOfBallots_ =  ballots.length;\n\t\t} else {\n\t\t\tnumOfBallots_ = 0;\n\t\t}\n\t}\n\n\tfunction getNumOfAddresses() constant public returns (uint numAdd) {\n\t\tnumAdd = addresses.length;\n\t}\n\n\tfunction getBallotName(uint ballotID) view public returns (string name_){\n\t\tname_ = ballots[ballotID].name();\n\t}\n\t\n}\n\n\n\n\n\n",
  "sourcePath": "/Users/David/Desktop/BostadsBlock/election/contracts/BRF.sol",
  "compiler": {
    "name": "solc",
    "version": "0.4.23+commit.124ca40d.Emscripten.clang"
  },
  "schemaVersion": "2.0.0",
  "updatedAt": "2018-05-06T08:51:07.020Z"
}