{
  "contractName": "BRF",
  "abi": [
    {
      "constant": true,
      "inputs": [
        {
          "name": "",
          "type": "uint256"
        }
      ],
      "name": "ballots",
      "outputs": [
        {
          "name": "",
          "type": "address"
        }
      ],
      "payable": false,
      "stateMutability": "view",
      "type": "function"
    },
    {
      "constant": true,
      "inputs": [],
      "name": "sumWeights",
      "outputs": [
        {
          "name": "",
          "type": "uint256"
        }
      ],
      "payable": false,
      "stateMutability": "view",
      "type": "function"
    },
    {
      "constant": true,
      "inputs": [],
      "name": "ballotStatus",
      "outputs": [
        {
          "name": "",
          "type": "uint256"
        }
      ],
      "payable": false,
      "stateMutability": "view",
      "type": "function"
    },
    {
      "constant": true,
      "inputs": [],
      "name": "chairPerson",
      "outputs": [
        {
          "name": "",
          "type": "address"
        }
      ],
      "payable": false,
      "stateMutability": "view",
      "type": "function"
    },
    {
      "inputs": [],
      "payable": false,
      "stateMutability": "nonpayable",
      "type": "constructor"
    },
    {
      "anonymous": false,
      "inputs": [
        {
          "indexed": true,
          "name": "_candidateId",
          "type": "uint256"
        }
      ],
      "name": "votedEvent",
      "type": "event"
    },
    {
      "constant": false,
      "inputs": [
        {
          "name": "weight",
          "type": "uint256"
        },
        {
          "name": "currAdd",
          "type": "address"
        }
      ],
      "name": "giveRightToVote",
      "outputs": [],
      "payable": false,
      "stateMutability": "nonpayable",
      "type": "function"
    },
    {
      "constant": false,
      "inputs": [
        {
          "name": "newOwner",
          "type": "address"
        }
      ],
      "name": "transferOwnership",
      "outputs": [],
      "payable": false,
      "stateMutability": "nonpayable",
      "type": "function"
    },
    {
      "constant": false,
      "inputs": [
        {
          "name": "proposalNames",
          "type": "int256[]"
        }
      ],
      "name": "createBallot",
      "outputs": [],
      "payable": false,
      "stateMutability": "nonpayable",
      "type": "function"
    },
    {
      "constant": false,
      "inputs": [
        {
          "name": "ballotID",
          "type": "uint256"
        },
        {
          "name": "proposalID",
          "type": "uint256"
        }
      ],
      "name": "vote",
      "outputs": [],
      "payable": false,
      "stateMutability": "nonpayable",
      "type": "function"
    },
    {
      "constant": false,
      "inputs": [
        {
          "name": "ballotID",
          "type": "uint256"
        },
        {
          "name": "to",
          "type": "address"
        }
      ],
      "name": "delegateTo",
      "outputs": [],
      "payable": false,
      "stateMutability": "nonpayable",
      "type": "function"
    },
    {
      "constant": true,
      "inputs": [
        {
          "name": "ballotID",
          "type": "uint256"
        }
      ],
      "name": "getWinner",
      "outputs": [
        {
          "name": "winnerName_",
          "type": "int256"
        }
      ],
      "payable": false,
      "stateMutability": "view",
      "type": "function"
    },
    {
      "constant": true,
      "inputs": [],
      "name": "getBallotSizes",
      "outputs": [
        {
          "name": "numOfBallots_",
          "type": "uint256"
        }
      ],
      "payable": false,
      "stateMutability": "view",
      "type": "function"
    },
    {
      "constant": true,
      "inputs": [],
      "name": "getNumOfAddresses",
      "outputs": [
        {
          "name": "numAdd",
          "type": "uint256"
        }
      ],
      "payable": false,
      "stateMutability": "view",
      "type": "function"
    }
  ],
  "bytecode": "0x608060405234801561001057600080fd5b50600060068190555033600360006101000a81548173ffffffffffffffffffffffffffffffffffffffff021916908373ffffffffffffffffffffffffffffffffffffffff1602179055506000600481905550611b25806100716000396000f3006080604052600436106100ba576000357c0100000000000000000000000000000000000000000000000000000000900463ffffffff1680634129b2c9146100bf57806344f24b83146101005780635c632b381461012b578063634a26f614610198578063b384abef146101c3578063c31026c7146101fa578063cd776e2b14610225578063d4d4b5ac14610250578063da5c02e7146102a7578063e5c9a8d41461030d578063f2fde38b1461035a578063fc7881c61461039d575b600080fd5b3480156100cb57600080fd5b506100ea600480360381019080803590602001909291905050506103ea565b6040518082815260200191505060405180910390f35b34801561010c57600080fd5b506101156104cb565b6040518082815260200191505060405180910390f35b34801561013757600080fd5b50610156600480360381019080803590602001909291905050506104d8565b604051808273ffffffffffffffffffffffffffffffffffffffff1673ffffffffffffffffffffffffffffffffffffffff16815260200191505060405180910390f35b3480156101a457600080fd5b506101ad610516565b6040518082815260200191505060405180910390f35b3480156101cf57600080fd5b506101f8600480360381019080803590602001909291908035906020019092919050505061051c565b005b34801561020657600080fd5b5061020f61065a565b6040518082815260200191505060405180910390f35b34801561023157600080fd5b5061023a61067c565b6040518082815260200191505060405180910390f35b34801561025c57600080fd5b50610265610682565b604051808273ffffffffffffffffffffffffffffffffffffffff1673ffffffffffffffffffffffffffffffffffffffff16815260200191505060405180910390f35b3480156102b357600080fd5b5061030b600480360381019080803590602001908201803590602001908080602002602001604051908101604052809392919081815260200183836020028082843782019150505050505091929192905050506106a8565b005b34801561031957600080fd5b5061035860048036038101908080359060200190929190803573ffffffffffffffffffffffffffffffffffffffff1690602001909291905050506108cb565b005b34801561036657600080fd5b5061039b600480360381019080803573ffffffffffffffffffffffffffffffffffffffff169060200190929190505050610be0565b005b3480156103a957600080fd5b506103e860048036038101908080359060200190929190803573ffffffffffffffffffffffffffffffffffffffff169060200190929190505050610e5a565b005b60006005828154811015156103fb57fe5b9060005260206000200160009054906101000a900473ffffffffffffffffffffffffffffffffffffffff1673ffffffffffffffffffffffffffffffffffffffff1663e2ba53f06040518163ffffffff167c0100000000000000000000000000000000000000000000000000000000028152600401602060405180830381600087803b15801561048957600080fd5b505af115801561049d573d6000803e3d6000fd5b505050506040513d60208110156104b357600080fd5b81019080805190602001909291905050509050919050565b6000600180549050905090565b6005818154811015156104e757fe5b906000526020600020016000915054906101000a900473ffffffffffffffffffffffffffffffffffffffff1681565b60045481565b60058281548110151561052b57fe5b9060005260206000200160009054906101000a900473ffffffffffffffffffffffffffffffffffffffff1673ffffffffffffffffffffffffffffffffffffffff166350d91583826000803373ffffffffffffffffffffffffffffffffffffffff1673ffffffffffffffffffffffffffffffffffffffff16815260200190815260200160002054336040518463ffffffff167c0100000000000000000000000000000000000000000000000000000000028152600401808481526020018381526020018273ffffffffffffffffffffffffffffffffffffffff1673ffffffffffffffffffffffffffffffffffffffff1681526020019350505050600060405180830381600087803b15801561063e57600080fd5b505af1158015610652573d6000803e3d6000fd5b505050505050565b600060016006541415610674576005805490509050610679565b600090505b90565b60065481565b600360009054906101000a900473ffffffffffffffffffffffffffffffffffffffff1681565b600360009054906101000a900473ffffffffffffffffffffffffffffffffffffffff1673ffffffffffffffffffffffffffffffffffffffff163373ffffffffffffffffffffffffffffffffffffffff1614151561076d576040517f08c379a00000000000000000000000000000000000000000000000000000000081526004018080602001828103825260188152602001807f596f752063616e742063726561746520612062616c6c6f74000000000000000081525060200191505060405180910390fd5b60016006819055506005600182610782610fc4565b80806020018060200183810383528581815481526020019150805480156107fe57602002820191906000526020600020905b8160009054906101000a900473ffffffffffffffffffffffffffffffffffffffff1673ffffffffffffffffffffffffffffffffffffffff16815260200190600101908083116107b4575b5050838103825284818151815260200191508051906020019060200280838360005b8381101561083b578082015181840152602081019050610820565b50505050905001945050505050604051809103906000f080158015610864573d6000803e3d6000fd5b5090806001815401808255809150509060018203906000526020600020016000909192909190916101000a81548173ffffffffffffffffffffffffffffffffffffffff021916908373ffffffffffffffffffffffffffffffffffffffff1602179055505050565b600082111515610969576040517f08c379a000000000000000000000000000000000000000000000000000000000815260040180806020018281038252602f8152602001807f43616e6e6f742061737369676e206e6f6e706f7369746976652076616c75657381526020017f20746f206f75722077656967687473000000000000000000000000000000000081525060400191505060405180910390fd5b600360009054906101000a900473ffffffffffffffffffffffffffffffffffffffff1673ffffffffffffffffffffffffffffffffffffffff163373ffffffffffffffffffffffffffffffffffffffff16141515610a54576040517f08c379a000000000000000000000000000000000000000000000000000000000815260040180806020018281038252602a8152602001807f596f7520646f206e6f742068617665207065726d697373696f6e20746f20616481526020017f642061206d656d6265720000000000000000000000000000000000000000000081525060400191505060405180910390fd5b6064826004540111151515610af7576040517f08c379a00000000000000000000000000000000000000000000000000000000081526004018080602001828103825260298152602001807f53756d206f6620616c6c20776569676874732065786365656420746865206c6981526020017f6d6974202831303029000000000000000000000000000000000000000000000081525060400191505060405180910390fd5b816000808373ffffffffffffffffffffffffffffffffffffffff1673ffffffffffffffffffffffffffffffffffffffff168152602001908152602001600020819055508160046000828254019250508190555060018190806001815401808255809150509060018203906000526020600020016000909192909190916101000a81548173ffffffffffffffffffffffffffffffffffffffff021916908373ffffffffffffffffffffffffffffffffffffffff1602179055505060028290806001815401808255809150509060018203906000526020600020016000909192909190915055505050565b60003373ffffffffffffffffffffffffffffffffffffffff168273ffffffffffffffffffffffffffffffffffffffff1614151515610cac576040517f08c379a000000000000000000000000000000000000000000000000000000000815260040180806020018281038252602d8152602001807f596f752063616e6e6f74207472616e7366657220746865206f776e657273686981526020017f7020746f20796f757273656c660000000000000000000000000000000000000081525060400191505060405180910390fd5b6000803373ffffffffffffffffffffffffffffffffffffffff1673ffffffffffffffffffffffffffffffffffffffff168152602001908152602001600020546000808473ffffffffffffffffffffffffffffffffffffffff1673ffffffffffffffffffffffffffffffffffffffff1681526020019081526020016000208190555060008060003373ffffffffffffffffffffffffffffffffffffffff1673ffffffffffffffffffffffffffffffffffffffff16815260200190815260200160002081905550600090505b600180549050811015610e56573373ffffffffffffffffffffffffffffffffffffffff16600182815481101515610da957fe5b9060005260206000200160009054906101000a900473ffffffffffffffffffffffffffffffffffffffff1673ffffffffffffffffffffffffffffffffffffffff161415610e495781600182815481101515610e0057fe5b9060005260206000200160006101000a81548173ffffffffffffffffffffffffffffffffffffffff021916908373ffffffffffffffffffffffffffffffffffffffff1602179055505b8080600101915050610d76565b5050565b600582815481101515610e6957fe5b9060005260206000200160009054906101000a900473ffffffffffffffffffffffffffffffffffffffff1673ffffffffffffffffffffffffffffffffffffffff1663d0e48cad6000803373ffffffffffffffffffffffffffffffffffffffff1673ffffffffffffffffffffffffffffffffffffffff1681526020019081526020016000205483336040518463ffffffff167c0100000000000000000000000000000000000000000000000000000000028152600401808481526020018373ffffffffffffffffffffffffffffffffffffffff1673ffffffffffffffffffffffffffffffffffffffff1681526020018273ffffffffffffffffffffffffffffffffffffffff1673ffffffffffffffffffffffffffffffffffffffff1681526020019350505050600060405180830381600087803b158015610fa857600080fd5b505af1158015610fbc573d6000803e3d6000fd5b505050505050565b604051610b2580610fd5833901905600608060405234801561001057600080fd5b50604051610b25380380610b258339810180604052810190808051820192919060200180518201929190505050600033600260006101000a81548173ffffffffffffffffffffffffffffffffffffffff021916908373ffffffffffffffffffffffffffffffffffffffff160217905550600090505b8251811015610116577fffffffffffffffffffffffffffffffffffffffffffffffffffffffffffffffff6003600085848151811015156100c157fe5b9060200190602002015173ffffffffffffffffffffffffffffffffffffffff1673ffffffffffffffffffffffffffffffffffffffff168152602001908152602001600020819055508080600101915050610085565b600090505b81518110156101a25760046040805190810160405280848481518110151561013f57fe5b9060200190602002015181526020016000815250908060018154018082558091505090600182039060005260206000209060020201600090919290919091506000820151816000015560208201518160010155505050808060010191505061011b565b505050610971806101b46000396000f300608060405260043610610062576000357c0100000000000000000000000000000000000000000000000000000000900463ffffffff168063013cf08b1461006757806350d91583146100af578063d0e48cad14610106578063e2ba53f014610173575b600080fd5b34801561007357600080fd5b506100926004803603810190808035906020019092919050505061019e565b604051808381526020018281526020019250505060405180910390f35b3480156100bb57600080fd5b506101046004803603810190808035906020019092919080359060200190929190803573ffffffffffffffffffffffffffffffffffffffff1690602001909291905050506101d1565b005b34801561011257600080fd5b5061017160048036038101908080359060200190929190803573ffffffffffffffffffffffffffffffffffffffff169060200190929190803573ffffffffffffffffffffffffffffffffffffffff1690602001909291905050506104a9565b005b34801561017f57600080fd5b50610188610898565b6040518082815260200191505060405180910390f35b6004818154811015156101ad57fe5b90600052602060002090600202016000915090508060000154908060010154905082565b600260009054906101000a900473ffffffffffffffffffffffffffffffffffffffff1673ffffffffffffffffffffffffffffffffffffffff163373ffffffffffffffffffffffffffffffffffffffff161415156102bc576040517f08c379a00000000000000000000000000000000000000000000000000000000081526004018080602001828103825260288152602001807f4f6e6c79206372656174696e67204252462063616e2063616c6c20746869732081526020017f66756e6374696f6e00000000000000000000000000000000000000000000000081525060400191505060405180910390fd5b6000600360008373ffffffffffffffffffffffffffffffffffffffff1673ffffffffffffffffffffffffffffffffffffffff1681526020019081526020016000205414151515610374576040517f08c379a000000000000000000000000000000000000000000000000000000000815260040180806020018281038252601f8152602001807f596f7520646f6e7420686176652074686520726967687420746f20766f74650081525060200191505060405180910390fd5b6000600360008373ffffffffffffffffffffffffffffffffffffffff1673ffffffffffffffffffffffffffffffffffffffff16815260200190815260200160002054131561043057600360008273ffffffffffffffffffffffffffffffffffffffff1673ffffffffffffffffffffffffffffffffffffffff16815260200190815260200160002054820160048481548110151561040d57fe5b90600052602060002090600202016001016000828254019250508190555061045f565b8160048481548110151561044057fe5b9060005260206000209060020201600101600082825401925050819055505b6000600360008373ffffffffffffffffffffffffffffffffffffffff1673ffffffffffffffffffffffffffffffffffffffff16815260200190815260200160002081905550505050565b600260009054906101000a900473ffffffffffffffffffffffffffffffffffffffff1673ffffffffffffffffffffffffffffffffffffffff163373ffffffffffffffffffffffffffffffffffffffff16141515610594576040517f08c379a00000000000000000000000000000000000000000000000000000000081526004018080602001828103825260288152602001807f4f6e6c79206372656174696e67204252462063616e2063616c6c20746869732081526020017f66756e6374696f6e00000000000000000000000000000000000000000000000081525060400191505060405180910390fd5b7fffffffffffffffffffffffffffffffffffffffffffffffffffffffffffffffff600360008373ffffffffffffffffffffffffffffffffffffffff1673ffffffffffffffffffffffffffffffffffffffff1681526020019081526020016000205414151561066a576040517f08c379a000000000000000000000000000000000000000000000000000000000815260040180806020018281038252601f8152602001807f596f7520617265206e6f7420616c6c6f77656420746f2064656c65676174650081525060200191505060405180910390fd5b7fffffffffffffffffffffffffffffffffffffffffffffffffffffffffffffffff600360008473ffffffffffffffffffffffffffffffffffffffff1673ffffffffffffffffffffffffffffffffffffffff16815260200190815260200160002054141515610766576040517f08c379a000000000000000000000000000000000000000000000000000000000815260040180806020018281038252602e8152602001807f5468652064656c656761746565206973206e6f7420656c696761626c6520666f81526020017f7220612064656c65676174696f6e00000000000000000000000000000000000081525060400191505060405180910390fd5b8073ffffffffffffffffffffffffffffffffffffffff168273ffffffffffffffffffffffffffffffffffffffff161415151561080a576040517f08c379a000000000000000000000000000000000000000000000000000000000815260040180806020018281038252601f8152602001807f596f752063616e6e6f742064656c656761746520746f20796f757273656c660081525060200191505060405180910390fd5b82600360008473ffffffffffffffffffffffffffffffffffffffff1673ffffffffffffffffffffffffffffffffffffffff168152602001908152602001600020819055506000600360008373ffffffffffffffffffffffffffffffffffffffff1673ffffffffffffffffffffffffffffffffffffffff16815260200190815260200160002081905550505050565b600060046108a46108c7565b8154811015156108b057fe5b906000526020600020906002020160000154905090565b6000806000809150600090505b60016004805490500381101561094057816004828154811015156108f457fe5b90600052602060002090600202016001015411156109335760048181548110151561091b57fe5b90600052602060002090600202016001015491508092505b80806001019150506108d4565b5050905600a165627a7a7230582037241d3191dd9f9bae3e93fc09a06a210eb385a658d2f916f6fd406cce38a8860029a165627a7a723058204a0120235a5e9326976bb570474b4c71eb01c9c7bea4c9bfe5fe8dba0fbaf1ed0029",
  "source": "pragma solidity ^0.4.19;\n\n/* TODO:\n\tTomorrow we check how we test. Try setting it up on remix and trying with metamask and after that\n\ttrying to get together an app.\n\n\tShould we implement a timelimit, in that case where (when to start/stop)?\n\tHow to retrieve the winning proposal in BRF.\n\n\tHow does the has look like (format, size etc.)?\n*/\n\nimport \"./Ballot.sol\";\n/**\n * The BRF contract does this and that...\n */\ncontract BRF {\n\n\tmapping (address => uint) private memberWeights;\t//Same thing as weights\n\taddress[] private addresses;\n\tuint[] private weights;\n\taddress public chairPerson;\n\tuint public sumWeights;\n\n\tBallot[] public ballots;\n\tuint public ballotStatus;\n\n    // voted event\n    event votedEvent (\n        uint indexed _candidateId\n    );\n\n\n\n\tconstructor () public{\n\t\tballotStatus = 0;\n\t\tchairPerson = msg.sender;\n\t\tsumWeights = 0;\n\t\t// weights = [25, 5, 2, 35, 15];\n\t\t// addresses = [0xca35b7d915458ef540ade6068dfe2f44e8fa733c, 0x14723a09acff6d2a60dcdf7aa4aff308fddc160c, 0x4b0897b0513fdc7c541b6d9d7e929c4e5364d2db, 0x583031d1113ad414f02576bd6afabfb302140225, 0xdd870fa1b7c4700f2bd7f44238821c26f7392148];\n\t\t// for (uint i = 0; i<weights.length; i++) {\n\t\t// \tgiveRightToVote(weights[i], addresses[i]);\n\t\t// }\n\t\t// int[] storage input;\n\t\t// input.push(1);\n\t\t// input.push(2);\n\t\t// createBallot(input);\n\t}\n\n\n\t/* This function gets passed tuples of weights and addresses. Only the chairperson\n\twill be allowed to call this function. The function assigns a weight to a certain address.\n\tWhen a call is made later, the address will be able to vote with its shares. */\n\tfunction giveRightToVote(uint weight, address currAdd) public {\n\n\t\trequire (weight > 0, \"Cannot assign nonpositive values to our weights\");\n\t\trequire (msg.sender == chairPerson, \"You do not have permission to add a member\");\n\n\t\t/*This might be a problematic requirement if the weights change (mbe we make some \n\t\tappartments smaller etc.) */\n\t\trequire(sumWeights + weight <= 100, \"Sum of all weights exceed the limit (100)\"); \n\n\t\tmemberWeights[currAdd] = weight;\n\t\tsumWeights += weight;\n\t\taddresses.push(currAdd);\n\t\tweights.push(weight);\n\t}\n\n\n\t/* Transfer the ownership of one apartment from one owner to another */\n\tfunction transferOwnership(address newOwner) public {\n\t\trequire(newOwner != msg.sender, \"You cannot transfer the ownership to yourself\");\n\t\tmemberWeights[newOwner] = memberWeights[msg.sender];\n\t\tmemberWeights[msg.sender] = 0;\n\n\t\tfor (uint i = 0; i<addresses.length; i++) {\n\t\t\tif (addresses[i] == msg.sender) {\n\t\t\t\taddresses[i] = newOwner;\n\t\t\t}\n\t\t}\n\t}\n\n\n\t/* @dev Creates a new ballot and pushes it into the global array called ballots.\n\t@param proposalNames array with proposalnames \n\t*/\n\tfunction createBallot(int[] proposalNames) public {\n\t\trequire(msg.sender == chairPerson, \"You cant create a ballot\");\n\t\tballotStatus = 1;\n\t\tballots.push(new Ballot(addresses, proposalNames));\n\t}\n\n\t/* \n\t@dev Votes for a proposal in a given ballot\n\t@param ballotID The id of the ballot we are voting on\n\t@param proposalID The id of the proposal we are voting on\n\t*/\n\tfunction vote(uint ballotID, uint proposalID) public {\n\t\tballots[ballotID].vote(proposalID, memberWeights[msg.sender], msg.sender);\n\t}\n\n\t/* @dev Let's a member delegates it's shares in a certain ballot to another\n\tmember.\n\t@param ballotID The ID of the ballot in which it wants to delegate.\n\t@param to The adress of the person it wants to delegate to.\n\t*/\n\tfunction delegateTo(uint ballotID, address to) public {\n\t\tballots[ballotID].delegate(memberWeights[msg.sender], to, msg.sender);\n\t}\n\n\t/* @dev Calls the ballot to retrieve the winner and sets in motion the transaction\n\tassociated with the winning proposal.\n\t@param ballotID The id of the associated\n\t*/\n\tfunction getWinner(uint ballotID) public view returns (int winnerName_){\n\t\twinnerName_ = ballots[ballotID].winnerName();\n\t}\n\n\t/* test help functions */\n\n\t/* Returns the number of ballots */\n\tfunction getBallotSizes() constant public returns (uint numOfBallots_) {\n\t\tif (ballotStatus == 1) {\n\t\t\tnumOfBallots_ =  ballots.length;\n\t\t} else {\n\t\t\tnumOfBallots_ = 0;\n\t\t}\n\t}\n\n\tfunction getNumOfAddresses() constant public returns (uint numAdd) {\n\t\tnumAdd = addresses.length;\n\t}\n\n\n}\n\n",
  "sourcePath": "/Users/David/Desktop/BostadsBlock/election/contracts/BRF.sol",
  "compiler": {
    "name": "solc",
    "version": "0.4.23+commit.124ca40d.Emscripten.clang"
  },
  "schemaVersion": "2.0.0",
  "updatedAt": "2018-05-04T08:04:30.306Z"
}