{
  "contractName": "BRF",
  "abi": [
    {
      "constant": true,
      "inputs": [],
      "name": "sumWeights",
      "outputs": [
        {
          "name": "",
          "type": "uint256"
        }
      ],
      "payable": false,
      "stateMutability": "view",
      "type": "function"
    },
    {
      "constant": true,
      "inputs": [],
      "name": "chairPerson",
      "outputs": [
        {
          "name": "",
          "type": "address"
        }
      ],
      "payable": false,
      "stateMutability": "view",
      "type": "function"
    },
    {
      "inputs": [],
      "payable": false,
      "stateMutability": "nonpayable",
      "type": "constructor"
    },
    {
      "constant": false,
      "inputs": [
        {
          "name": "newOwner",
          "type": "address"
        }
      ],
      "name": "transferOwnership",
      "outputs": [],
      "payable": false,
      "stateMutability": "nonpayable",
      "type": "function"
    },
    {
      "constant": false,
      "inputs": [
        {
          "name": "proposalNames",
          "type": "bytes32[]"
        }
      ],
      "name": "createBallot",
      "outputs": [],
      "payable": false,
      "stateMutability": "nonpayable",
      "type": "function"
    },
    {
      "constant": false,
      "inputs": [
        {
          "name": "ballotID",
          "type": "uint256"
        },
        {
          "name": "proposalID",
          "type": "uint256"
        }
      ],
      "name": "vote",
      "outputs": [],
      "payable": false,
      "stateMutability": "nonpayable",
      "type": "function"
    },
    {
      "constant": false,
      "inputs": [
        {
          "name": "ballotID",
          "type": "uint256"
        },
        {
          "name": "to",
          "type": "address"
        }
      ],
      "name": "delegateTo",
      "outputs": [],
      "payable": false,
      "stateMutability": "nonpayable",
      "type": "function"
    },
    {
      "constant": true,
      "inputs": [
        {
          "name": "ballotID",
          "type": "uint256"
        }
      ],
      "name": "getWinner",
      "outputs": [
        {
          "name": "winnerName_",
          "type": "bytes32"
        }
      ],
      "payable": false,
      "stateMutability": "view",
      "type": "function"
    }
  ],
  "bytecode": "0x60806040523480156200001157600080fd5b50600033600360006101000a81548173ffffffffffffffffffffffffffffffffffffffff021916908373ffffffffffffffffffffffffffffffffffffffff16021790555060a060405190810160405280601960ff168152602001600560ff168152602001600260ff168152602001602360ff168152602001600f60ff168152506002906005620000a3929190620004d6565b5060a06040519081016040528073ca35b7d915458ef540ade6068dfe2f44e8fa733c73ffffffffffffffffffffffffffffffffffffffff1681526020017314723a09acff6d2a60dcdf7aa4aff308fddc160c73ffffffffffffffffffffffffffffffffffffffff168152602001734b0897b0513fdc7c541b6d9d7e929c4e5364d2db73ffffffffffffffffffffffffffffffffffffffff16815260200173583031d1113ad414f02576bd6afabfb30214022573ffffffffffffffffffffffffffffffffffffffff16815260200173dd870fa1b7c4700f2bd7f44238821c26f739214873ffffffffffffffffffffffffffffffffffffffff168152506001906005620001b09291906200052d565b506000600481905550600090505b60028054905081101562000249576200023b600282815481101515620001e057fe5b9060005260206000200154600183815481101515620001fb57fe5b9060005260206000200160009054906101000a900473ffffffffffffffffffffffffffffffffffffffff1662000250640100000000026401000000009004565b8080600101915050620001be565b506200062a565b600082111515620002ef576040517f08c379a000000000000000000000000000000000000000000000000000000000815260040180806020018281038252602f8152602001807f43616e6e6f742061737369676e206e6f6e706f7369746976652076616c75657381526020017f20746f206f75722077656967687473000000000000000000000000000000000081525060400191505060405180910390fd5b600360009054906101000a900473ffffffffffffffffffffffffffffffffffffffff1673ffffffffffffffffffffffffffffffffffffffff163373ffffffffffffffffffffffffffffffffffffffff16141515620003db576040517f08c379a000000000000000000000000000000000000000000000000000000000815260040180806020018281038252602a8152602001807f596f7520646f206e6f742068617665207065726d697373696f6e20746f20616481526020017f642061206d656d6265720000000000000000000000000000000000000000000081525060400191505060405180910390fd5b60648260045401111515156200047f576040517f08c379a00000000000000000000000000000000000000000000000000000000081526004018080602001828103825260298152602001807f53756d206f6620616c6c20776569676874732065786365656420746865206c6981526020017f6d6974202831303029000000000000000000000000000000000000000000000081525060400191505060405180910390fd5b816000808373ffffffffffffffffffffffffffffffffffffffff1673ffffffffffffffffffffffffffffffffffffffff16815260200190815260200160002081905550816004600082825401925050819055505050565b8280548282559060005260206000209081019282156200051a579160200282015b8281111562000519578251829060ff16905591602001919060010190620004f7565b5b509050620005299190620005bc565b5090565b828054828255906000526020600020908101928215620005a9579160200282015b82811115620005a85782518260006101000a81548173ffffffffffffffffffffffffffffffffffffffff021916908373ffffffffffffffffffffffffffffffffffffffff160217905550916020019190600101906200054e565b5b509050620005b89190620005e4565b5090565b620005e191905b80821115620005dd576000816000905550600101620005c3565b5090565b90565b6200062791905b808211156200062357600081816101000a81549073ffffffffffffffffffffffffffffffffffffffff021916905550600101620005eb565b5090565b90565b611764806200063a6000396000f300608060405260043610610083576000357c0100000000000000000000000000000000000000000000000000000000900463ffffffff1680634129b2c914610088578063634a26f6146100d1578063b384abef146100fc578063d4d4b5ac14610133578063e35c93841461018a578063f2fde38b146101f0578063fc7881c614610233575b600080fd5b34801561009457600080fd5b506100b360048036038101908080359060200190929190505050610280565b60405180826000191660001916815260200191505060405180910390f35b3480156100dd57600080fd5b506100e6610361565b6040518082815260200191505060405180910390f35b34801561010857600080fd5b506101316004803603810190808035906020019092919080359060200190929190505050610367565b005b34801561013f57600080fd5b506101486104a5565b604051808273ffffffffffffffffffffffffffffffffffffffff1673ffffffffffffffffffffffffffffffffffffffff16815260200191505060405180910390f35b34801561019657600080fd5b506101ee600480360381019080803590602001908201803590602001908080602002602001604051908101604052809392919081815260200183836020028082843782019150505050505091929192905050506104cb565b005b3480156101fc57600080fd5b50610231600480360381019080803573ffffffffffffffffffffffffffffffffffffffff1690602001909291905050506106ef565b005b34801561023f57600080fd5b5061027e60048036038101908080359060200190929190803573ffffffffffffffffffffffffffffffffffffffff169060200190929190505050610969565b005b600060058281548110151561029157fe5b9060005260206000200160009054906101000a900473ffffffffffffffffffffffffffffffffffffffff1673ffffffffffffffffffffffffffffffffffffffff1663e2ba53f06040518163ffffffff167c0100000000000000000000000000000000000000000000000000000000028152600401602060405180830381600087803b15801561031f57600080fd5b505af1158015610333573d6000803e3d6000fd5b505050506040513d602081101561034957600080fd5b81019080805190602001909291905050509050919050565b60045481565b60058281548110151561037657fe5b9060005260206000200160009054906101000a900473ffffffffffffffffffffffffffffffffffffffff1673ffffffffffffffffffffffffffffffffffffffff166350d91583826000803373ffffffffffffffffffffffffffffffffffffffff1673ffffffffffffffffffffffffffffffffffffffff16815260200190815260200160002054336040518463ffffffff167c0100000000000000000000000000000000000000000000000000000000028152600401808481526020018381526020018273ffffffffffffffffffffffffffffffffffffffff1673ffffffffffffffffffffffffffffffffffffffff1681526020019350505050600060405180830381600087803b15801561048957600080fd5b505af115801561049d573d6000803e3d6000fd5b505050505050565b600360009054906101000a900473ffffffffffffffffffffffffffffffffffffffff1681565b600360009054906101000a900473ffffffffffffffffffffffffffffffffffffffff1673ffffffffffffffffffffffffffffffffffffffff163373ffffffffffffffffffffffffffffffffffffffff16141515610590576040517f08c379a00000000000000000000000000000000000000000000000000000000081526004018080602001828103825260188152602001807f596f752063616e742063726561746520612062616c6c6f74000000000000000081525060200191505060405180910390fd5b6005600182607861059f610ad3565b808060200180602001848152602001838103835286818154815260200191508054801561062157602002820191906000526020600020905b8160009054906101000a900473ffffffffffffffffffffffffffffffffffffffff1673ffffffffffffffffffffffffffffffffffffffff16815260200190600101908083116105d7575b5050838103825285818151815260200191508051906020019060200280838360005b8381101561065e578082015181840152602081019050610643565b5050505090500195505050505050604051809103906000f080158015610688573d6000803e3d6000fd5b5090806001815401808255809150509060018203906000526020600020016000909192909190916101000a81548173ffffffffffffffffffffffffffffffffffffffff021916908373ffffffffffffffffffffffffffffffffffffffff1602179055505050565b60003373ffffffffffffffffffffffffffffffffffffffff168273ffffffffffffffffffffffffffffffffffffffff16141515156107bb576040517f08c379a000000000000000000000000000000000000000000000000000000000815260040180806020018281038252602d8152602001807f596f752063616e6e6f74207472616e7366657220746865206f776e657273686981526020017f7020746f20796f757273656c660000000000000000000000000000000000000081525060400191505060405180910390fd5b6000803373ffffffffffffffffffffffffffffffffffffffff1673ffffffffffffffffffffffffffffffffffffffff168152602001908152602001600020546000808473ffffffffffffffffffffffffffffffffffffffff1673ffffffffffffffffffffffffffffffffffffffff1681526020019081526020016000208190555060008060003373ffffffffffffffffffffffffffffffffffffffff1673ffffffffffffffffffffffffffffffffffffffff16815260200190815260200160002081905550600090505b600180549050811015610965573373ffffffffffffffffffffffffffffffffffffffff166001828154811015156108b857fe5b9060005260206000200160009054906101000a900473ffffffffffffffffffffffffffffffffffffffff1673ffffffffffffffffffffffffffffffffffffffff161415610958578160018281548110151561090f57fe5b9060005260206000200160006101000a81548173ffffffffffffffffffffffffffffffffffffffff021916908373ffffffffffffffffffffffffffffffffffffffff1602179055505b8080600101915050610885565b5050565b60058281548110151561097857fe5b9060005260206000200160009054906101000a900473ffffffffffffffffffffffffffffffffffffffff1673ffffffffffffffffffffffffffffffffffffffff1663d0e48cad6000803373ffffffffffffffffffffffffffffffffffffffff1673ffffffffffffffffffffffffffffffffffffffff1681526020019081526020016000205483336040518463ffffffff167c0100000000000000000000000000000000000000000000000000000000028152600401808481526020018373ffffffffffffffffffffffffffffffffffffffff1673ffffffffffffffffffffffffffffffffffffffff1681526020018273ffffffffffffffffffffffffffffffffffffffff1673ffffffffffffffffffffffffffffffffffffffff1681526020019350505050600060405180830381600087803b158015610ab757600080fd5b505af1158015610acb573d6000803e3d6000fd5b505050505050565b604051610c5580610ae4833901905600608060405234801561001057600080fd5b50604051610c55380380610c55833981018060405281019080805182019291906020018051820192919060200180519060200190929190505050600033600260006101000a81548173ffffffffffffffffffffffffffffffffffffffff021916908373ffffffffffffffffffffffffffffffffffffffff1602179055508160018190555042600081905550600090505b8351811015610131577fffffffffffffffffffffffffffffffffffffffffffffffffffffffffffffffff6003600086848151811015156100dc57fe5b9060200190602002015173ffffffffffffffffffffffffffffffffffffffff1673ffffffffffffffffffffffffffffffffffffffff1681526020019081526020016000208190555080806001019150506100a0565b600090505b82518110156101c75760046040805190810160405280858481518110151561015a57fe5b9060200190602002015160001916815260200160008152509080600181540180825580915050906001820390600052602060002090600202016000909192909190915060008201518160000190600019169055602082015181600101555050508080600101915050610136565b50505050610a7b806101da6000396000f300608060405260043610610062576000357c0100000000000000000000000000000000000000000000000000000000900463ffffffff168063013cf08b1461006757806350d91583146100b7578063d0e48cad1461010e578063e2ba53f01461017b575b600080fd5b34801561007357600080fd5b50610092600480360381019080803590602001909291905050506101ae565b6040518083600019166000191681526020018281526020019250505060405180910390f35b3480156100c357600080fd5b5061010c6004803603810190808035906020019092919080359060200190929190803573ffffffffffffffffffffffffffffffffffffffff1690602001909291905050506101e1565b005b34801561011a57600080fd5b5061017960048036038101908080359060200190929190803573ffffffffffffffffffffffffffffffffffffffff169060200190929190803573ffffffffffffffffffffffffffffffffffffffff169060200190929190505050610536565b005b34801561018757600080fd5b50610190610925565b60405180826000191660001916815260200191505060405180910390f35b6004818154811015156101bd57fe5b90600052602060002090600202016000915090508060000154908060010154905082565b600260009054906101000a900473ffffffffffffffffffffffffffffffffffffffff1673ffffffffffffffffffffffffffffffffffffffff163373ffffffffffffffffffffffffffffffffffffffff161415156102cc576040517f08c379a00000000000000000000000000000000000000000000000000000000081526004018080602001828103825260288152602001807f4f6e6c79206372656174696e67204252462063616e2063616c6c20746869732081526020017f66756e6374696f6e00000000000000000000000000000000000000000000000081525060400191505060405180910390fd5b6000600360008373ffffffffffffffffffffffffffffffffffffffff1673ffffffffffffffffffffffffffffffffffffffff1681526020019081526020016000205414151515610384576040517f08c379a000000000000000000000000000000000000000000000000000000000815260040180806020018281038252601f8152602001807f596f7520646f6e7420686176652074686520726967687420746f20766f74650081525060200191505060405180910390fd5b6001546000540142101515610401576040517f08c379a000000000000000000000000000000000000000000000000000000000815260040180806020018281038252601a8152602001807f42616c6c6f74206973206e6f74206c69766520616e796d6f726500000000000081525060200191505060405180910390fd5b6000600360008373ffffffffffffffffffffffffffffffffffffffff1673ffffffffffffffffffffffffffffffffffffffff1681526020019081526020016000205413156104bd57600360008273ffffffffffffffffffffffffffffffffffffffff1673ffffffffffffffffffffffffffffffffffffffff16815260200190815260200160002054820160048481548110151561049a57fe5b9060005260206000209060020201600101600082825401925050819055506104ec565b816004848154811015156104cd57fe5b9060005260206000209060020201600101600082825401925050819055505b6000600360008373ffffffffffffffffffffffffffffffffffffffff1673ffffffffffffffffffffffffffffffffffffffff16815260200190815260200160002081905550505050565b600260009054906101000a900473ffffffffffffffffffffffffffffffffffffffff1673ffffffffffffffffffffffffffffffffffffffff163373ffffffffffffffffffffffffffffffffffffffff16141515610621576040517f08c379a00000000000000000000000000000000000000000000000000000000081526004018080602001828103825260288152602001807f4f6e6c79206372656174696e67204252462063616e2063616c6c20746869732081526020017f66756e6374696f6e00000000000000000000000000000000000000000000000081525060400191505060405180910390fd5b7fffffffffffffffffffffffffffffffffffffffffffffffffffffffffffffffff600360008373ffffffffffffffffffffffffffffffffffffffff1673ffffffffffffffffffffffffffffffffffffffff168152602001908152602001600020541415156106f7576040517f08c379a000000000000000000000000000000000000000000000000000000000815260040180806020018281038252601f8152602001807f596f7520617265206e6f7420616c6c6f77656420746f2064656c65676174650081525060200191505060405180910390fd5b7fffffffffffffffffffffffffffffffffffffffffffffffffffffffffffffffff600360008473ffffffffffffffffffffffffffffffffffffffff1673ffffffffffffffffffffffffffffffffffffffff168152602001908152602001600020541415156107f3576040517f08c379a000000000000000000000000000000000000000000000000000000000815260040180806020018281038252602e8152602001807f5468652064656c656761746565206973206e6f7420656c696761626c6520666f81526020017f7220612064656c65676174696f6e00000000000000000000000000000000000081525060400191505060405180910390fd5b8073ffffffffffffffffffffffffffffffffffffffff168273ffffffffffffffffffffffffffffffffffffffff1614151515610897576040517f08c379a000000000000000000000000000000000000000000000000000000000815260040180806020018281038252601f8152602001807f596f752063616e6e6f742064656c656761746520746f20796f757273656c660081525060200191505060405180910390fd5b82600360008473ffffffffffffffffffffffffffffffffffffffff1673ffffffffffffffffffffffffffffffffffffffff168152602001908152602001600020819055506000600360008373ffffffffffffffffffffffffffffffffffffffff1673ffffffffffffffffffffffffffffffffffffffff16815260200190815260200160002081905550505050565b600060015460005442031115156109a4576040517f08c379a00000000000000000000000000000000000000000000000000000000081526004018080602001828103825260138152602001807f566f7465206e6f742079657420656e6465642e0000000000000000000000000081525060200191505060405180910390fd5b60046109ae6109d1565b8154811015156109ba57fe5b906000526020600020906002020160000154905090565b6000806000809150600090505b600160048054905003811015610a4a57816004828154811015156109fe57fe5b9060005260206000209060020201600101541115610a3d57600481815481101515610a2557fe5b90600052602060002090600202016001015491508092505b80806001019150506109de565b5050905600a165627a7a72305820a890edd1b30c566341931470af5805c87058b70f0076ca62a1bd50b21d1b99860029a165627a7a7230582015e4834b4f0b488e34a8523b894177d9c648e22a8fd0f9fe9241607d2bb4a0f90029",
  "source": "pragma solidity ^0.4.19;\n\n/* TODO:\n\tTomorrow we check how we test. Try setting it up on remix and trying with metamask and after that\n\ttrying to get together an app.\n\n\tShould we implement a timelimit, in that case where (when to start/stop)?\n\tHow to retrieve the winning proposal in BRF.\n\n\tHow does the has look like (format, size etc.)?\n*/\n\nimport \"./Ballot.sol\";\n/**\n * The BRF contract does this and that...\n */\ncontract BRF {\n\n\tmapping (address => uint) private memberWeights;\t//Same thing as weights\n\taddress[] private addresses;\n\tuint[] private weights;\n\taddress public chairPerson;\n\tuint public sumWeights;\n\n\tBallot[] ballots;\n\n\tconstructor () public{\n\t\tchairPerson = msg.sender;\n\t\tweights = [25, 5, 2, 35, 15];\n\t\taddresses = [0xca35b7d915458ef540ade6068dfe2f44e8fa733c, 0x14723a09acff6d2a60dcdf7aa4aff308fddc160c, 0x4b0897b0513fdc7c541b6d9d7e929c4e5364d2db, 0x583031d1113ad414f02576bd6afabfb302140225, 0xdd870fa1b7c4700f2bd7f44238821c26f7392148];\n\t\tsumWeights = 0;\n\t\tfor (uint i = 0; i<weights.length; i++) {\n\t\t\tgiveRightToVote(weights[i], addresses[i]);\n\t\t}\n\t}\n\n\n\t/* This function gets passed tuples of weights and addresses. Only the chairperson\n\twill be allowed to call this function. The function assigns a weight to a certain address.\n\tWhen a call is made later, the address will be able to vote with its shares. */\n\tfunction giveRightToVote(uint weight, address currAdd) internal {\n\n\t\trequire (weight > 0, \"Cannot assign nonpositive values to our weights\");\n\t\trequire (msg.sender == chairPerson, \"You do not have permission to add a member\");\n\n\t\t/*This might be a problematic requirement if the weights change (mbe we make some \n\t\tappartments smaller etc.) */\n\t\trequire(sumWeights + weight <= 100, \"Sum of all weights exceed the limit (100)\"); \n\n\t\tmemberWeights[currAdd] = weight;\n\t\tsumWeights += weight;\n\t}\n\n\n\t/* Transfer the ownership of one apartment from one owner to another */\n\tfunction transferOwnership(address newOwner) public {\n\t\trequire(newOwner != msg.sender, \"You cannot transfer the ownership to yourself\");\n\t\tmemberWeights[newOwner] = memberWeights[msg.sender];\n\t\tmemberWeights[msg.sender] = 0;\n\n\t\tfor (uint i = 0; i<addresses.length; i++) {\n\t\t\tif (addresses[i] == msg.sender) {\n\t\t\t\taddresses[i] = newOwner;\n\t\t\t}\n\t\t}\n\t}\n\n\n\t/* @dev Creates a new ballot and pushes it into the global array called ballots.\n\t@param proposalNames array with proposalnames \n\t*/\n\tfunction createBallot(bytes32[] proposalNames) public {\n\t\trequire(msg.sender == chairPerson, \"You cant create a ballot\");\n\t\tballots.push(new Ballot(addresses, proposalNames, 120));\n\t}\n\n\t/* \n\t@dev Votes for a proposal in a given ballot\n\t@param ballotID The id of the ballot we are voting on\n\t@param proposalID The id of the proposal we are voting on\n\t*/\n\tfunction vote(uint ballotID, uint proposalID) public {\n\t\tballots[ballotID].vote(proposalID, memberWeights[msg.sender], msg.sender);\n\t}\n\n\t/* @dev Let's a member delegates it's shares in a certain ballot to another\n\tmember.\n\t@param ballotID The ID of the ballot in which it wants to delegate.\n\t@param to The adress of the person it wants to delegate to.\n\t*/\n\tfunction delegateTo(uint ballotID, address to) public {\n\t\tballots[ballotID].delegate(memberWeights[msg.sender], to, msg.sender);\n\t}\n\n\t/* @dev Calls the ballot to retrieve the winner and sets in motion the transaction\n\tassociated with the winning proposal.\n\t@param ballotID The id of the associated\n\t*/\n\tfunction getWinner(uint ballotID) public view returns (bytes32 winnerName_){\n\t\twinnerName_ = ballots[ballotID].winnerName();\n\t}\n}\n\n",
  "sourcePath": "/Users/Shad/Desktop/projekt/election/contracts/BRF.sol",
  "compiler": {
    "name": "solc",
    "version": "0.4.23+commit.124ca40d.Emscripten.clang"
  },
  "schemaVersion": "2.0.0",
  "updatedAt": "2018-05-03T09:11:41.687Z"
}