{
  "contractName": "BRF",
  "abi": [
    {
      "constant": true,
      "inputs": [],
      "name": "name",
      "outputs": [
        {
          "name": "",
          "type": "string"
        }
      ],
      "payable": false,
      "stateMutability": "view",
      "type": "function"
    },
    {
      "constant": true,
      "inputs": [
        {
          "name": "",
          "type": "uint256"
        }
      ],
      "name": "ballots",
      "outputs": [
        {
          "name": "",
          "type": "address"
        }
      ],
      "payable": false,
      "stateMutability": "view",
      "type": "function"
    },
    {
      "constant": true,
      "inputs": [],
      "name": "sumWeights",
      "outputs": [
        {
          "name": "",
          "type": "uint256"
        }
      ],
      "payable": false,
      "stateMutability": "view",
      "type": "function"
    },
    {
      "constant": true,
      "inputs": [],
      "name": "ballotStatus",
      "outputs": [
        {
          "name": "",
          "type": "uint256"
        }
      ],
      "payable": false,
      "stateMutability": "view",
      "type": "function"
    },
    {
      "constant": true,
      "inputs": [],
      "name": "chairPerson",
      "outputs": [
        {
          "name": "",
          "type": "address"
        }
      ],
      "payable": false,
      "stateMutability": "view",
      "type": "function"
    },
    {
      "inputs": [],
      "payable": false,
      "stateMutability": "nonpayable",
      "type": "constructor"
    },
    {
      "anonymous": false,
      "inputs": [
        {
          "indexed": true,
          "name": "_candidateId",
          "type": "uint256"
        }
      ],
      "name": "votedEvent",
      "type": "event"
    },
    {
      "constant": false,
      "inputs": [
        {
          "name": "weight",
          "type": "uint256"
        },
        {
          "name": "currAdd",
          "type": "address"
        }
      ],
      "name": "giveRightToVote",
      "outputs": [],
      "payable": false,
      "stateMutability": "nonpayable",
      "type": "function"
    },
    {
      "constant": false,
      "inputs": [
        {
          "name": "newOwner",
          "type": "address"
        }
      ],
      "name": "transferOwnership",
      "outputs": [],
      "payable": false,
      "stateMutability": "nonpayable",
      "type": "function"
    },
    {
      "constant": false,
      "inputs": [
        {
          "name": "_ballotName",
          "type": "string"
        },
        {
          "name": "proposalNames",
          "type": "int256[]"
        }
      ],
      "name": "createBallot",
      "outputs": [],
      "payable": false,
      "stateMutability": "nonpayable",
      "type": "function"
    },
    {
      "constant": false,
      "inputs": [
        {
          "name": "ballotID",
          "type": "uint256"
        },
        {
          "name": "proposalID",
          "type": "uint256"
        }
      ],
      "name": "vote",
      "outputs": [],
      "payable": false,
      "stateMutability": "nonpayable",
      "type": "function"
    },
    {
      "constant": false,
      "inputs": [
        {
          "name": "ballotID",
          "type": "uint256"
        },
        {
          "name": "to",
          "type": "address"
        }
      ],
      "name": "delegateTo",
      "outputs": [],
      "payable": false,
      "stateMutability": "nonpayable",
      "type": "function"
    },
    {
      "constant": true,
      "inputs": [
        {
          "name": "ballotID",
          "type": "uint256"
        }
      ],
      "name": "getWinner",
      "outputs": [
        {
          "name": "winnerName_",
          "type": "int256"
        }
      ],
      "payable": false,
      "stateMutability": "view",
      "type": "function"
    },
    {
      "constant": true,
      "inputs": [],
      "name": "getNumBallots",
      "outputs": [
        {
          "name": "numBallots_",
          "type": "uint256"
        }
      ],
      "payable": false,
      "stateMutability": "view",
      "type": "function"
    },
    {
      "constant": true,
      "inputs": [],
      "name": "getNumAddresses",
      "outputs": [
        {
          "name": "numAdd_",
          "type": "uint256"
        }
      ],
      "payable": false,
      "stateMutability": "view",
      "type": "function"
    },
    {
      "constant": true,
      "inputs": [
        {
          "name": "_ballotID",
          "type": "uint256"
        }
      ],
      "name": "getBallotName",
      "outputs": [
        {
          "name": "name_",
          "type": "string"
        }
      ],
      "payable": false,
      "stateMutability": "view",
      "type": "function"
    },
    {
      "constant": true,
      "inputs": [
        {
          "name": "_num",
          "type": "uint256"
        }
      ],
      "name": "getAddressWeight",
      "outputs": [
        {
          "name": "address_",
          "type": "address"
        },
        {
          "name": "weight_",
          "type": "uint256"
        }
      ],
      "payable": false,
      "stateMutability": "view",
      "type": "function"
    },
    {
      "constant": true,
      "inputs": [
        {
          "name": "_ballotId",
          "type": "uint256"
        }
      ],
      "name": "getNumProposals",
      "outputs": [
        {
          "name": "numB_",
          "type": "uint256"
        }
      ],
      "payable": false,
      "stateMutability": "view",
      "type": "function"
    },
    {
      "constant": true,
      "inputs": [
        {
          "name": "_ballotId",
          "type": "uint256"
        },
        {
          "name": "_propId",
          "type": "uint256"
        }
      ],
      "name": "getProposal",
      "outputs": [
        {
          "name": "name_",
          "type": "int256"
        },
        {
          "name": "voteCount_",
          "type": "uint256"
        }
      ],
      "payable": false,
      "stateMutability": "view",
      "type": "function"
    }
  ],
  "bytecode": "0x60806040523480156200001157600080fd5b50600060078190555033600360006101000a81548173ffffffffffffffffffffffffffffffffffffffff021916908373ffffffffffffffffffffffffffffffffffffffff16021790555060006004819055506040805190810160405280600c81526020017f42524620536f6c726f73656e000000000000000000000000000000000000000081525060059080519060200190620000b0929190620000b7565b5062000166565b828054600181600116156101000203166002900490600052602060002090601f016020900481019282601f10620000fa57805160ff19168380011785556200012b565b828001600101855582156200012b579182015b828111156200012a5782518255916020019190600101906200010d565b5b5090506200013a91906200013e565b5090565b6200016391905b808211156200015f57600081600090555060010162000145565b5090565b90565b61279180620001766000396000f30060806040526004361062000103576000357c0100000000000000000000000000000000000000000000000000000000900463ffffffff168063022eb102146200010857806306fdde0314620001b75780630aec8970146200024d5780634129b2c91462000291578063503ecb3214620002d55780635c632b381462000303578063634a26f614620003735780638ba0328114620003a1578063a213ecb81462000418578063aba210091462000446578063b384abef146200049b578063cd776e2b14620004d5578063cf2baa5b1462000503578063d4d4b5ac14620005af578063e5c9a8d41462000609578063f2fde38b1462000659578063fc7881c6146200069f575b600080fd5b3480156200011557600080fd5b50620001b5600480360381019080803590602001908201803590602001908080601f016020809104026020016040519081016040528093929190818152602001838380828437820191505050505050919291929080359060200190820180359060200190808060200260200160405190810160405280939291908181526020018383602002808284378201915050505050509192919290505050620006ef565b005b348015620001c457600080fd5b50620001cf6200098b565b6040518080602001828103825283818151815260200191508051906020019080838360005b8381101562000211578082015181840152602081019050620001f4565b50505050905090810190601f1680156200023f5780820380516001836020036101000a031916815260200191505b509250505060405180910390f35b3480156200025a57600080fd5b506200027b6004803603810190808035906020019092919050505062000a2d565b6040518082815260200191505060405180910390f35b3480156200029e57600080fd5b50620002bf6004803603810190808035906020019092919050505062000b12565b6040518082815260200191505060405180910390f35b348015620002e257600080fd5b50620002ed62000bf7565b6040518082815260200191505060405180910390f35b3480156200031057600080fd5b50620003316004803603810190808035906020019092919050505062000c04565b604051808273ffffffffffffffffffffffffffffffffffffffff1673ffffffffffffffffffffffffffffffffffffffff16815260200191505060405180910390f35b3480156200038057600080fd5b506200038b62000c43565b6040518082815260200191505060405180910390f35b348015620003ae57600080fd5b50620003cf6004803603810190808035906020019092919050505062000c49565b604051808373ffffffffffffffffffffffffffffffffffffffff1673ffffffffffffffffffffffffffffffffffffffff1681526020018281526020019250505060405180910390f35b3480156200042557600080fd5b506200043062000cab565b6040518082815260200191505060405180910390f35b3480156200045357600080fd5b506200047e600480360381019080803590602001909291908035906020019092919050505062000ccf565b604051808381526020018281526020019250505060405180910390f35b348015620004a857600080fd5b50620004d3600480360381019080803590602001909291908035906020019092919050505062000eab565b005b348015620004e257600080fd5b50620004ed62000fec565b6040518082815260200191505060405180910390f35b3480156200051057600080fd5b50620005316004803603810190808035906020019092919050505062000ff2565b6040518080602001828103825283818151815260200191508051906020019080838360005b838110156200057357808201518184015260208101905062000556565b50505050905090810190601f168015620005a15780820380516001836020036101000a031916815260200191505b509250505060405180910390f35b348015620005bc57600080fd5b50620005c762001130565b604051808273ffffffffffffffffffffffffffffffffffffffff1673ffffffffffffffffffffffffffffffffffffffff16815260200191505060405180910390f35b3480156200061657600080fd5b506200065760048036038101908080359060200190929190803573ffffffffffffffffffffffffffffffffffffffff16906020019092919050505062001156565b005b3480156200066657600080fd5b506200069d600480360381019080803573ffffffffffffffffffffffffffffffffffffffff1690602001909291905050506200146e565b005b348015620006ac57600080fd5b50620006ed60048036038101908080359060200190929190803573ffffffffffffffffffffffffffffffffffffffff169060200190929190505050620016ee565b005b600360009054906101000a900473ffffffffffffffffffffffffffffffffffffffff1673ffffffffffffffffffffffffffffffffffffffff163373ffffffffffffffffffffffffffffffffffffffff16141515620007b5576040517f08c379a00000000000000000000000000000000000000000000000000000000081526004018080602001828103825260188152602001807f596f752063616e742063726561746520612062616c6c6f74000000000000000081525060200191505060405180910390fd5b6001600781905550600682600183620007cd6200185b565b80806020018060200180602001848103845287818151815260200191508051906020019080838360005b8381101562000814578082015181840152602081019050620007f7565b50505050905090810190601f168015620008425780820380516001836020036101000a031916815260200191505b508481038352868181548152602001915080548015620008b857602002820191906000526020600020905b8160009054906101000a900473ffffffffffffffffffffffffffffffffffffffff1673ffffffffffffffffffffffffffffffffffffffff16815260200190600101908083116200086d575b5050848103825285818151815260200191508051906020019060200280838360005b83811015620008f7578082015181840152602081019050620008da565b505050509050019650505050505050604051809103906000f08015801562000923573d6000803e3d6000fd5b5090806001815401808255809150509060018203906000526020600020016000909192909190916101000a81548173ffffffffffffffffffffffffffffffffffffffff021916908373ffffffffffffffffffffffffffffffffffffffff160217905550505050565b60058054600181600116156101000203166002900480601f01602080910402602001604051908101604052809291908181526020018280546001816001161561010002031660029004801562000a255780601f10620009f95761010080835404028352916020019162000a25565b820191906000526020600020905b81548152906001019060200180831162000a0757829003601f168201915b505050505081565b600060068281548110151562000a3f57fe5b9060005260206000200160009054906101000a900473ffffffffffffffffffffffffffffffffffffffff1673ffffffffffffffffffffffffffffffffffffffff1663798974dd6040518163ffffffff167c0100000000000000000000000000000000000000000000000000000000028152600401602060405180830381600087803b15801562000ace57600080fd5b505af115801562000ae3573d6000803e3d6000fd5b505050506040513d602081101562000afa57600080fd5b81019080805190602001909291905050509050919050565b600060068281548110151562000b2457fe5b9060005260206000200160009054906101000a900473ffffffffffffffffffffffffffffffffffffffff1673ffffffffffffffffffffffffffffffffffffffff1663e2ba53f06040518163ffffffff167c0100000000000000000000000000000000000000000000000000000000028152600401602060405180830381600087803b15801562000bb357600080fd5b505af115801562000bc8573d6000803e3d6000fd5b505050506040513d602081101562000bdf57600080fd5b81019080805190602001909291905050509050919050565b6000600180549050905090565b60068181548110151562000c1457fe5b906000526020600020016000915054906101000a900473ffffffffffffffffffffffffffffffffffffffff1681565b60045481565b60008060018381548110151562000c5c57fe5b9060005260206000200160009054906101000a900473ffffffffffffffffffffffffffffffffffffffff16915060028381548110151562000c9957fe5b90600052602060002001549050915091565b60006001600754141562000cc757600680549050905062000ccc565b600090505b90565b60008060068481548110151562000ce257fe5b9060005260206000200160009054906101000a900473ffffffffffffffffffffffffffffffffffffffff1673ffffffffffffffffffffffffffffffffffffffff16636b8ff574846040518263ffffffff167c010000000000000000000000000000000000000000000000000000000002815260040180828152602001915050602060405180830381600087803b15801562000d7c57600080fd5b505af115801562000d91573d6000803e3d6000fd5b505050506040513d602081101562000da857600080fd5b8101908080519060200190929190505050915060068481548110151562000dcb57fe5b9060005260206000200160009054906101000a900473ffffffffffffffffffffffffffffffffffffffff1673ffffffffffffffffffffffffffffffffffffffff1663b2c2f2e8846040518263ffffffff167c010000000000000000000000000000000000000000000000000000000002815260040180828152602001915050602060405180830381600087803b15801562000e6557600080fd5b505af115801562000e7a573d6000803e3d6000fd5b505050506040513d602081101562000e9157600080fd5b810190808051906020019092919050505090509250929050565b60068281548110151562000ebb57fe5b9060005260206000200160009054906101000a900473ffffffffffffffffffffffffffffffffffffffff1673ffffffffffffffffffffffffffffffffffffffff166350d91583826000803373ffffffffffffffffffffffffffffffffffffffff1673ffffffffffffffffffffffffffffffffffffffff16815260200190815260200160002054336040518463ffffffff167c0100000000000000000000000000000000000000000000000000000000028152600401808481526020018381526020018273ffffffffffffffffffffffffffffffffffffffff1673ffffffffffffffffffffffffffffffffffffffff1681526020019350505050600060405180830381600087803b15801562000fcf57600080fd5b505af115801562000fe4573d6000803e3d6000fd5b505050505050565b60075481565b60606006828154811015156200100457fe5b9060005260206000200160009054906101000a900473ffffffffffffffffffffffffffffffffffffffff1673ffffffffffffffffffffffffffffffffffffffff166306fdde036040518163ffffffff167c0100000000000000000000000000000000000000000000000000000000028152600401600060405180830381600087803b1580156200109357600080fd5b505af1158015620010a8573d6000803e3d6000fd5b505050506040513d6000823e3d601f19601f820116820180604052506020811015620010d357600080fd5b810190808051640100000000811115620010ec57600080fd5b828101905060208101848111156200110357600080fd5b81518560018202830111640100000000821117156200112157600080fd5b50509291905050509050919050565b600360009054906101000a900473ffffffffffffffffffffffffffffffffffffffff1681565b600082111515620011f5576040517f08c379a00000000000000000000000000000000000000000000000000000000081526004018080602001828103825260378152602001807f43616e6e6f742061737369676e206e6f6e706f7369746976652076616c75657381526020017f20746f206f757220776569676874732e2072657665727400000000000000000081525060400191505060405180910390fd5b600360009054906101000a900473ffffffffffffffffffffffffffffffffffffffff1673ffffffffffffffffffffffffffffffffffffffff163373ffffffffffffffffffffffffffffffffffffffff16141515620012e1576040517f08c379a000000000000000000000000000000000000000000000000000000000815260040180806020018281038252602a8152602001807f596f7520646f206e6f742068617665207065726d697373696f6e20746f20616481526020017f642061206d656d6265720000000000000000000000000000000000000000000081525060400191505060405180910390fd5b606482600454011115151562001385576040517f08c379a00000000000000000000000000000000000000000000000000000000081526004018080602001828103825260298152602001807f53756d206f6620616c6c20776569676874732065786365656420746865206c6981526020017f6d6974202831303029000000000000000000000000000000000000000000000081525060400191505060405180910390fd5b816000808373ffffffffffffffffffffffffffffffffffffffff1673ffffffffffffffffffffffffffffffffffffffff168152602001908152602001600020819055508160046000828254019250508190555060018190806001815401808255809150509060018203906000526020600020016000909192909190916101000a81548173ffffffffffffffffffffffffffffffffffffffff021916908373ffffffffffffffffffffffffffffffffffffffff1602179055505060028290806001815401808255809150509060018203906000526020600020016000909192909190915055505050565b60003373ffffffffffffffffffffffffffffffffffffffff168273ffffffffffffffffffffffffffffffffffffffff16141515156200153b576040517f08c379a000000000000000000000000000000000000000000000000000000000815260040180806020018281038252602d8152602001807f596f752063616e6e6f74207472616e7366657220746865206f776e657273686981526020017f7020746f20796f757273656c660000000000000000000000000000000000000081525060400191505060405180910390fd5b6000803373ffffffffffffffffffffffffffffffffffffffff1673ffffffffffffffffffffffffffffffffffffffff168152602001908152602001600020546000808473ffffffffffffffffffffffffffffffffffffffff1673ffffffffffffffffffffffffffffffffffffffff1681526020019081526020016000208190555060008060003373ffffffffffffffffffffffffffffffffffffffff1673ffffffffffffffffffffffffffffffffffffffff16815260200190815260200160002081905550600090505b600180549050811015620016ea573373ffffffffffffffffffffffffffffffffffffffff166001828154811015156200163a57fe5b9060005260206000200160009054906101000a900473ffffffffffffffffffffffffffffffffffffffff1673ffffffffffffffffffffffffffffffffffffffff161415620016dc57816001828154811015156200169357fe5b9060005260206000200160006101000a81548173ffffffffffffffffffffffffffffffffffffffff021916908373ffffffffffffffffffffffffffffffffffffffff1602179055505b808060010191505062001605565b5050565b600682815481101515620016fe57fe5b9060005260206000200160009054906101000a900473ffffffffffffffffffffffffffffffffffffffff1673ffffffffffffffffffffffffffffffffffffffff1663d0e48cad6000803373ffffffffffffffffffffffffffffffffffffffff1673ffffffffffffffffffffffffffffffffffffffff1681526020019081526020016000205483336040518463ffffffff167c0100000000000000000000000000000000000000000000000000000000028152600401808481526020018373ffffffffffffffffffffffffffffffffffffffff1673ffffffffffffffffffffffffffffffffffffffff1681526020018273ffffffffffffffffffffffffffffffffffffffff1673ffffffffffffffffffffffffffffffffffffffff1681526020019350505050600060405180830381600087803b1580156200183e57600080fd5b505af115801562001853573d6000803e3d6000fd5b505050505050565b604051610ef9806200186d83390190560060806040523480156200001157600080fd5b5060405162000ef938038062000ef98339810180604052810190808051820192919060200180518201929190602001805182019291905050506000836004908051906020019062000064929190620001d8565b5033600260006101000a81548173ffffffffffffffffffffffffffffffffffffffff021916908373ffffffffffffffffffffffffffffffffffffffff160217905550600090505b82518110156200013f577fffffffffffffffffffffffffffffffffffffffffffffffffffffffffffffffff600360008584815181101515620000e957fe5b9060200190602002015173ffffffffffffffffffffffffffffffffffffffff1673ffffffffffffffffffffffffffffffffffffffff168152602001908152602001600020819055508080600101915050620000ab565b600090505b8151811015620001ce576005604080519081016040528084848151811015156200016a57fe5b9060200190602002015181526020016000815250908060018154018082558091505090600182039060005260206000209060020201600090919290919091506000820151816000015560208201518160010155505050808060010191505062000144565b5050505062000287565b828054600181600116156101000203166002900490600052602060002090601f016020900481019282601f106200021b57805160ff19168380011785556200024c565b828001600101855582156200024c579182015b828111156200024b5782518255916020019190600101906200022e565b5b5090506200025b91906200025f565b5090565b6200028491905b808211156200028057600081600090555060010162000266565b5090565b90565b610c6280620002976000396000f30060806040526004361061008e576000357c0100000000000000000000000000000000000000000000000000000000900463ffffffff168063013cf08b1461009357806306fdde03146100db57806350d915831461016b5780636b8ff574146101c2578063798974dd14610203578063b2c2f2e81461022e578063d0e48cad1461026f578063e2ba53f0146102dc575b600080fd5b34801561009f57600080fd5b506100be60048036038101908080359060200190929190505050610307565b604051808381526020018281526020019250505060405180910390f35b3480156100e757600080fd5b506100f061033a565b6040518080602001828103825283818151815260200191508051906020019080838360005b83811015610130578082015181840152602081019050610115565b50505050905090810190601f16801561015d5780820380516001836020036101000a031916815260200191505b509250505060405180910390f35b34801561017757600080fd5b506101c06004803603810190808035906020019092919080359060200190929190803573ffffffffffffffffffffffffffffffffffffffff1690602001909291905050506103d8565b005b3480156101ce57600080fd5b506101ed60048036038101908080359060200190929190505050610739565b6040518082815260200191505060405180910390f35b34801561020f57600080fd5b50610218610763565b6040518082815260200191505060405180910390f35b34801561023a57600080fd5b5061025960048036038101908080359060200190929190505050610770565b6040518082815260200191505060405180910390f35b34801561027b57600080fd5b506102da60048036038101908080359060200190929190803573ffffffffffffffffffffffffffffffffffffffff169060200190929190803573ffffffffffffffffffffffffffffffffffffffff16906020019092919050505061079a565b005b3480156102e857600080fd5b506102f1610b89565b6040518082815260200191505060405180910390f35b60058181548110151561031657fe5b90600052602060002090600202016000915090508060000154908060010154905082565b60048054600181600116156101000203166002900480601f0160208091040260200160405190810160405280929190818152602001828054600181600116156101000203166002900480156103d05780601f106103a5576101008083540402835291602001916103d0565b820191906000526020600020905b8154815290600101906020018083116103b357829003601f168201915b505050505081565b600260009054906101000a900473ffffffffffffffffffffffffffffffffffffffff1673ffffffffffffffffffffffffffffffffffffffff163373ffffffffffffffffffffffffffffffffffffffff161415156104c3576040517f08c379a00000000000000000000000000000000000000000000000000000000081526004018080602001828103825260288152602001807f4f6e6c79206372656174696e67204252462063616e2063616c6c20746869732081526020017f66756e6374696f6e00000000000000000000000000000000000000000000000081525060400191505060405180910390fd5b6000600360008373ffffffffffffffffffffffffffffffffffffffff1673ffffffffffffffffffffffffffffffffffffffff168152602001908152602001600020541415151561057b576040517f08c379a000000000000000000000000000000000000000000000000000000000815260040180806020018281038252601f8152602001807f596f7520646f6e7420686176652074686520726967687420746f20766f74650081525060200191505060405180910390fd5b60008310158015610590575060058054905083105b1515610604576040517f08c379a00000000000000000000000000000000000000000000000000000000081526004018080602001828103825260128152602001807f496e76616c69642070726f706f73616c4944000000000000000000000000000081525060200191505060405180910390fd5b6000600360008373ffffffffffffffffffffffffffffffffffffffff1673ffffffffffffffffffffffffffffffffffffffff1681526020019081526020016000205413156106c057600360008273ffffffffffffffffffffffffffffffffffffffff1673ffffffffffffffffffffffffffffffffffffffff16815260200190815260200160002054820160058481548110151561069d57fe5b9060005260206000209060020201600101600082825401925050819055506106ef565b816005848154811015156106d057fe5b9060005260206000209060020201600101600082825401925050819055505b6000600360008373ffffffffffffffffffffffffffffffffffffffff1673ffffffffffffffffffffffffffffffffffffffff16815260200190815260200160002081905550505050565b600060058281548110151561074a57fe5b9060005260206000209060020201600001549050919050565b6000600580549050905090565b600060058281548110151561078157fe5b9060005260206000209060020201600101549050919050565b600260009054906101000a900473ffffffffffffffffffffffffffffffffffffffff1673ffffffffffffffffffffffffffffffffffffffff163373ffffffffffffffffffffffffffffffffffffffff16141515610885576040517f08c379a00000000000000000000000000000000000000000000000000000000081526004018080602001828103825260288152602001807f4f6e6c79206372656174696e67204252462063616e2063616c6c20746869732081526020017f66756e6374696f6e00000000000000000000000000000000000000000000000081525060400191505060405180910390fd5b7fffffffffffffffffffffffffffffffffffffffffffffffffffffffffffffffff600360008373ffffffffffffffffffffffffffffffffffffffff1673ffffffffffffffffffffffffffffffffffffffff1681526020019081526020016000205414151561095b576040517f08c379a000000000000000000000000000000000000000000000000000000000815260040180806020018281038252601f8152602001807f596f7520617265206e6f7420616c6c6f77656420746f2064656c65676174650081525060200191505060405180910390fd5b7fffffffffffffffffffffffffffffffffffffffffffffffffffffffffffffffff600360008473ffffffffffffffffffffffffffffffffffffffff1673ffffffffffffffffffffffffffffffffffffffff16815260200190815260200160002054141515610a57576040517f08c379a000000000000000000000000000000000000000000000000000000000815260040180806020018281038252602e8152602001807f5468652064656c656761746565206973206e6f7420656c696761626c6520666f81526020017f7220612064656c65676174696f6e00000000000000000000000000000000000081525060400191505060405180910390fd5b8073ffffffffffffffffffffffffffffffffffffffff168273ffffffffffffffffffffffffffffffffffffffff1614151515610afb576040517f08c379a000000000000000000000000000000000000000000000000000000000815260040180806020018281038252601f8152602001807f596f752063616e6e6f742064656c656761746520746f20796f757273656c660081525060200191505060405180910390fd5b82600360008473ffffffffffffffffffffffffffffffffffffffff1673ffffffffffffffffffffffffffffffffffffffff168152602001908152602001600020819055506000600360008373ffffffffffffffffffffffffffffffffffffffff1673ffffffffffffffffffffffffffffffffffffffff16815260200190815260200160002081905550505050565b60006005610b95610bb8565b815481101515610ba157fe5b906000526020600020906002020160000154905090565b6000806000809150600090505b600160058054905003811015610c315781600582815481101515610be557fe5b9060005260206000209060020201600101541115610c2457600581815481101515610c0c57fe5b90600052602060002090600202016001015491508092505b8080600101915050610bc5565b5050905600a165627a7a723058206ae1c48edbaec36c2b30ae0027619fb613c8204c435135848965473a28cebbfc0029a165627a7a723058200f55166ab36500acacca7018d6b5ee4693b121d15ad5d6a7b7419e90dc0f4c3e0029",
  "source": "pragma solidity ^0.4.19;\n\n/* TODO:\n\tTomorrow we check how we test. Try setting it up on remix and trying with metamask and after that\n\ttrying to get together an app.\n\n\tShould we implement a timelimit, in that case where (when to start/stop)?\n\tHow to retrieve the winning proposal in BRF.\n\n\tHow does the has look like (format, size etc.)?\n*/\n\nimport \"./Ballot.sol\";\n/**\n * The BRF contract does this and that...\n */\ncontract BRF {\n\n\tmapping (address => uint) private memberWeights;\t//Same thing as weights\n\taddress[] private addresses;\n\tuint[] private weights;\n\taddress public chairPerson;\n\tuint public sumWeights;\n\tstring public name;\n\n\tBallot[] public ballots;\n\tuint public ballotStatus;\n\n    // voted event\n    event votedEvent (\n        uint indexed _candidateId\n    );\n\n\n\n\tconstructor () public{\n\t\tballotStatus = 0;\n\t\tchairPerson = msg.sender;\n\t\tsumWeights = 0;\n\t\tname = \"BRF Solrosen\";\n\t\t// weights = [25, 5, 2, 35, 15];\n\t\t// addresses = [0xca35b7d915458ef540ade6068dfe2f44e8fa733c, 0x14723a09acff6d2a60dcdf7aa4aff308fddc160c, 0x4b0897b0513fdc7c541b6d9d7e929c4e5364d2db, 0x583031d1113ad414f02576bd6afabfb302140225, 0xdd870fa1b7c4700f2bd7f44238821c26f7392148];\n\t\t// for (uint i = 0; i<weights.length; i++) {\n\t\t// \tgiveRightToVote(weights[i], addresses[i]);\n\t\t// }\n\t\t// int[] storage input;\n\t\t// input.push(1);\n\t\t// input.push(2);\n\t\t// createBallot(input);\n\t}\n\n\n\t/* This function gets passed tuples of weights and addresses. Only the chairperson\n\twill be allowed to call this function. The function assigns a weight to a certain address.\n\tWhen a call is made later, the address will be able to vote with its shares. */\n\tfunction giveRightToVote(uint weight, address currAdd) public {\n\n\t\trequire (weight > 0, \"Cannot assign nonpositive values to our weights. revert\");\n\t\trequire (msg.sender == chairPerson, \"You do not have permission to add a member\");\n\n\t\t/*This might be a problematic requirement if the weights change (mbe we make some \n\t\tappartments smaller etc.) */\n\t\trequire(sumWeights + weight <= 100, \"Sum of all weights exceed the limit (100)\"); \n\n\t\tmemberWeights[currAdd] = weight;\n\t\tsumWeights += weight;\n\t\taddresses.push(currAdd);\n\t\tweights.push(weight);\n\t}\n\n\n\t/* Transfer the ownership of one apartment from one owner to another */\n\tfunction transferOwnership(address newOwner) public {\n\t\trequire(newOwner != msg.sender, \"You cannot transfer the ownership to yourself\");\n\t\tmemberWeights[newOwner] = memberWeights[msg.sender];\n\t\tmemberWeights[msg.sender] = 0;\n\n\t\tfor (uint i = 0; i<addresses.length; i++) {\n\t\t\tif (addresses[i] == msg.sender) {\n\t\t\t\taddresses[i] = newOwner;\n\t\t\t}\n\t\t}\n\t}\n\n\n\t/* @dev Creates a new ballot and pushes it into the global array called ballots.\n\t@param proposalNames array with proposalnames \n\t*/\n\tfunction createBallot(string _ballotName, int[] proposalNames) public {\n\t\trequire(msg.sender == chairPerson, \"You cant create a ballot\");\n\t\tballotStatus = 1;\n\t\tballots.push(new Ballot(_ballotName, addresses, proposalNames));\n\t}\n\n\t/* \n\t@dev Votes for a proposal in a given ballot\n\t@param ballotID The id of the ballot we are voting on\n\t@param proposalID The id of the proposal we are voting on\n\t*/\n\tfunction vote(uint ballotID, uint proposalID) public {\n\t\tballots[ballotID].vote(proposalID, memberWeights[msg.sender], msg.sender);\n\t}\n\n\t/* @dev Let's a member delegates it's shares in a certain ballot to another\n\tmember.\n\t@param ballotID The ID of the ballot in which it wants to delegate.\n\t@param to The adress of the person it wants to delegate to.\n\t*/\n\tfunction delegateTo(uint ballotID, address to) public {\n\t\tballots[ballotID].delegate(memberWeights[msg.sender], to, msg.sender);\n\t}\n\n\t/* @dev Calls the ballot to retrieve the winner and sets in motion the transaction\n\tassociated with the winning proposal.\n\t@param ballotID The id of the associated\n\t*/\n\tfunction getWinner(uint ballotID) public view returns (int winnerName_){\n\t\twinnerName_ = ballots[ballotID].winnerName();\n\t}\n\n\t/* test help functions */\n\n\t/* @dev Returns the number of ballots \n\t@returns numBallotsNumber of ballots created\n\t*/\n\tfunction getNumBallots() constant public returns (uint numBallots_) {\n\t\tif (ballotStatus == 1) {\n\t\t\tnumBallots_ =  ballots.length;\n\t\t} else {\n\t\t\tnumBallots_ = 0;\n\t\t}\n\t}\n\n\n\t/* @dev Returns the number of addresses with voting rights\n\t@returns numAdd Number of addresses\n\t*/\n\tfunction getNumAddresses() constant public returns (uint numAdd_) {\n\t\tnumAdd_ = addresses.length;\n\t}\n\n\n\t/* @dev Returns the name of the winning proposal in a certain ballot\n\t@param _ballotID ID of the ballot\n\t@returns name_ Name of winning proposal\n\t*/\n\tfunction getBallotName(uint _ballotID) view public returns (string name_){\n\t\tname_ = ballots[_ballotID].name();\n\t}\n\t\n\tfunction getAddressWeight(uint _num) view public returns (address address_, uint weight_){\n\t\taddress_ = addresses[_num];\n\t\tweight_ = weights[_num];\n\t}\n\t/* @dev Returns the number of proposals for a certain ballot  \n\t@param _ballotId Id of the ballot\n\t*/\n\tfunction getNumProposals(uint _ballotId) view public returns(uint numB_){\n\t\tnumB_ = ballots[_ballotId].getNumProposals();\n\t}\n\n\t/* @dev returns a tuple of propsal and votes corresponding to a certain\n\tproposal.\n\t@param _ballotId Id of the ballot\n\t@param _propId Id of the proposal\n\t@returns name Name of the proposal\n\t@returns votecount the number of votes on this proposal\n\t*/\n\tfunction getProposal(uint _ballotId, uint _propId) view public returns (int name_,uint voteCount_){\n\t\tname_ = ballots[_ballotId].getName(_propId);\n\t\tvoteCount_ = ballots[_ballotId].getVoteCount(_propId);\n\t}\n}\n\n\n\n\n\n",
  "sourcePath": "/Users/David/Desktop/BostadsBlock/election/contracts/BRF.sol",
  "compiler": {
    "name": "solc",
    "version": "0.4.23+commit.124ca40d.Emscripten.clang"
  },
  "schemaVersion": "2.0.0",
  "updatedAt": "2018-05-12T13:45:02.038Z"
}