{
  "contractName": "BRF",
  "abi": [
    {
      "constant": true,
      "inputs": [],
      "name": "name",
      "outputs": [
        {
          "name": "",
          "type": "string"
        }
      ],
      "payable": false,
      "stateMutability": "view",
      "type": "function"
    },
    {
      "constant": true,
      "inputs": [
        {
          "name": "",
          "type": "uint256"
        }
      ],
      "name": "ballots",
      "outputs": [
        {
          "name": "",
          "type": "address"
        }
      ],
      "payable": false,
      "stateMutability": "view",
      "type": "function"
    },
    {
      "constant": true,
      "inputs": [],
      "name": "sumWeights",
      "outputs": [
        {
          "name": "",
          "type": "uint256"
        }
      ],
      "payable": false,
      "stateMutability": "view",
      "type": "function"
    },
    {
      "constant": true,
      "inputs": [],
      "name": "ballotStatus",
      "outputs": [
        {
          "name": "",
          "type": "uint256"
        }
      ],
      "payable": false,
      "stateMutability": "view",
      "type": "function"
    },
    {
      "constant": true,
      "inputs": [],
      "name": "chairPerson",
      "outputs": [
        {
          "name": "",
          "type": "address"
        }
      ],
      "payable": false,
      "stateMutability": "view",
      "type": "function"
    },
    {
      "inputs": [],
      "payable": false,
      "stateMutability": "nonpayable",
      "type": "constructor"
    },
    {
      "anonymous": false,
      "inputs": [
        {
          "indexed": true,
          "name": "_candidateId",
          "type": "uint256"
        }
      ],
      "name": "votedEvent",
      "type": "event"
    },
    {
      "constant": false,
      "inputs": [
        {
          "name": "weight",
          "type": "uint256"
        },
        {
          "name": "currAdd",
          "type": "address"
        }
      ],
      "name": "giveRightToVote",
      "outputs": [],
      "payable": false,
      "stateMutability": "nonpayable",
      "type": "function"
    },
    {
      "constant": false,
      "inputs": [
        {
          "name": "newOwner",
          "type": "address"
        }
      ],
      "name": "transferOwnership",
      "outputs": [],
      "payable": false,
      "stateMutability": "nonpayable",
      "type": "function"
    },
    {
      "constant": false,
      "inputs": [
        {
          "name": "proposalNames",
          "type": "int256[]"
        }
      ],
      "name": "createBallot",
      "outputs": [],
      "payable": false,
      "stateMutability": "nonpayable",
      "type": "function"
    },
    {
      "constant": false,
      "inputs": [
        {
          "name": "ballotID",
          "type": "uint256"
        },
        {
          "name": "proposalID",
          "type": "uint256"
        }
      ],
      "name": "vote",
      "outputs": [],
      "payable": false,
      "stateMutability": "nonpayable",
      "type": "function"
    },
    {
      "constant": false,
      "inputs": [
        {
          "name": "ballotID",
          "type": "uint256"
        },
        {
          "name": "to",
          "type": "address"
        }
      ],
      "name": "delegateTo",
      "outputs": [],
      "payable": false,
      "stateMutability": "nonpayable",
      "type": "function"
    },
    {
      "constant": true,
      "inputs": [
        {
          "name": "ballotID",
          "type": "uint256"
        }
      ],
      "name": "getWinner",
      "outputs": [
        {
          "name": "winnerName_",
          "type": "int256"
        }
      ],
      "payable": false,
      "stateMutability": "view",
      "type": "function"
    },
    {
      "constant": true,
      "inputs": [],
      "name": "getBallotSizes",
      "outputs": [
        {
          "name": "numOfBallots_",
          "type": "uint256"
        }
      ],
      "payable": false,
      "stateMutability": "view",
      "type": "function"
    },
    {
      "constant": true,
      "inputs": [],
      "name": "getNumOfAddresses",
      "outputs": [
        {
          "name": "numAdd",
          "type": "uint256"
        }
      ],
      "payable": false,
      "stateMutability": "view",
      "type": "function"
    }
  ],
  "bytecode": "0x60806040523480156200001157600080fd5b50600060078190555033600360006101000a81548173ffffffffffffffffffffffffffffffffffffffff021916908373ffffffffffffffffffffffffffffffffffffffff16021790555060006004819055506040805190810160405280600c81526020017f42524620536f6c726f73656e000000000000000000000000000000000000000081525060059080519060200190620000b0929190620000b7565b5062000166565b828054600181600116156101000203166002900490600052602060002090601f016020900481019282601f10620000fa57805160ff19168380011785556200012b565b828001600101855582156200012b579182015b828111156200012a5782518255916020019190600101906200010d565b5b5090506200013a91906200013e565b5090565b6200016391905b808211156200015f57600081600090555060010162000145565b5090565b90565b611c5e80620001766000396000f3006080604052600436106100c5576000357c0100000000000000000000000000000000000000000000000000000000900463ffffffff16806306fdde03146100ca5780634129b2c91461015a57806344f24b831461019b5780635c632b38146101c6578063634a26f614610233578063b384abef1461025e578063c31026c714610295578063cd776e2b146102c0578063d4d4b5ac146102eb578063da5c02e714610342578063e5c9a8d4146103a8578063f2fde38b146103f5578063fc7881c614610438575b600080fd5b3480156100d657600080fd5b506100df610485565b6040518080602001828103825283818151815260200191508051906020019080838360005b8381101561011f578082015181840152602081019050610104565b50505050905090810190601f16801561014c5780820380516001836020036101000a031916815260200191505b509250505060405180910390f35b34801561016657600080fd5b5061018560048036038101908080359060200190929190505050610523565b6040518082815260200191505060405180910390f35b3480156101a757600080fd5b506101b0610604565b6040518082815260200191505060405180910390f35b3480156101d257600080fd5b506101f160048036038101908080359060200190929190505050610611565b604051808273ffffffffffffffffffffffffffffffffffffffff1673ffffffffffffffffffffffffffffffffffffffff16815260200191505060405180910390f35b34801561023f57600080fd5b5061024861064f565b6040518082815260200191505060405180910390f35b34801561026a57600080fd5b506102936004803603810190808035906020019092919080359060200190929190505050610655565b005b3480156102a157600080fd5b506102aa610793565b6040518082815260200191505060405180910390f35b3480156102cc57600080fd5b506102d56107b5565b6040518082815260200191505060405180910390f35b3480156102f757600080fd5b506103006107bb565b604051808273ffffffffffffffffffffffffffffffffffffffff1673ffffffffffffffffffffffffffffffffffffffff16815260200191505060405180910390f35b34801561034e57600080fd5b506103a6600480360381019080803590602001908201803590602001908080602002602001604051908101604052809392919081815260200183836020028082843782019150505050505091929192905050506107e1565b005b3480156103b457600080fd5b506103f360048036038101908080359060200190929190803573ffffffffffffffffffffffffffffffffffffffff169060200190929190505050610a04565b005b34801561040157600080fd5b50610436600480360381019080803573ffffffffffffffffffffffffffffffffffffffff169060200190929190505050610d19565b005b34801561044457600080fd5b5061048360048036038101908080359060200190929190803573ffffffffffffffffffffffffffffffffffffffff169060200190929190505050610f93565b005b60058054600181600116156101000203166002900480601f01602080910402602001604051908101604052809291908181526020018280546001816001161561010002031660029004801561051b5780601f106104f05761010080835404028352916020019161051b565b820191906000526020600020905b8154815290600101906020018083116104fe57829003601f168201915b505050505081565b600060068281548110151561053457fe5b9060005260206000200160009054906101000a900473ffffffffffffffffffffffffffffffffffffffff1673ffffffffffffffffffffffffffffffffffffffff1663e2ba53f06040518163ffffffff167c0100000000000000000000000000000000000000000000000000000000028152600401602060405180830381600087803b1580156105c257600080fd5b505af11580156105d6573d6000803e3d6000fd5b505050506040513d60208110156105ec57600080fd5b81019080805190602001909291905050509050919050565b6000600180549050905090565b60068181548110151561062057fe5b906000526020600020016000915054906101000a900473ffffffffffffffffffffffffffffffffffffffff1681565b60045481565b60068281548110151561066457fe5b9060005260206000200160009054906101000a900473ffffffffffffffffffffffffffffffffffffffff1673ffffffffffffffffffffffffffffffffffffffff166350d91583826000803373ffffffffffffffffffffffffffffffffffffffff1673ffffffffffffffffffffffffffffffffffffffff16815260200190815260200160002054336040518463ffffffff167c0100000000000000000000000000000000000000000000000000000000028152600401808481526020018381526020018273ffffffffffffffffffffffffffffffffffffffff1673ffffffffffffffffffffffffffffffffffffffff1681526020019350505050600060405180830381600087803b15801561077757600080fd5b505af115801561078b573d6000803e3d6000fd5b505050505050565b6000600160075414156107ad5760068054905090506107b2565b600090505b90565b60075481565b600360009054906101000a900473ffffffffffffffffffffffffffffffffffffffff1681565b600360009054906101000a900473ffffffffffffffffffffffffffffffffffffffff1673ffffffffffffffffffffffffffffffffffffffff163373ffffffffffffffffffffffffffffffffffffffff161415156108a6576040517f08c379a00000000000000000000000000000000000000000000000000000000081526004018080602001828103825260188152602001807f596f752063616e742063726561746520612062616c6c6f74000000000000000081525060200191505060405180910390fd5b600160078190555060066001826108bb6110fd565b808060200180602001838103835285818154815260200191508054801561093757602002820191906000526020600020905b8160009054906101000a900473ffffffffffffffffffffffffffffffffffffffff1673ffffffffffffffffffffffffffffffffffffffff16815260200190600101908083116108ed575b5050838103825284818151815260200191508051906020019060200280838360005b83811015610974578082015181840152602081019050610959565b50505050905001945050505050604051809103906000f08015801561099d573d6000803e3d6000fd5b5090806001815401808255809150509060018203906000526020600020016000909192909190916101000a81548173ffffffffffffffffffffffffffffffffffffffff021916908373ffffffffffffffffffffffffffffffffffffffff1602179055505050565b600082111515610aa2576040517f08c379a000000000000000000000000000000000000000000000000000000000815260040180806020018281038252602f8152602001807f43616e6e6f742061737369676e206e6f6e706f7369746976652076616c75657381526020017f20746f206f75722077656967687473000000000000000000000000000000000081525060400191505060405180910390fd5b600360009054906101000a900473ffffffffffffffffffffffffffffffffffffffff1673ffffffffffffffffffffffffffffffffffffffff163373ffffffffffffffffffffffffffffffffffffffff16141515610b8d576040517f08c379a000000000000000000000000000000000000000000000000000000000815260040180806020018281038252602a8152602001807f596f7520646f206e6f742068617665207065726d697373696f6e20746f20616481526020017f642061206d656d6265720000000000000000000000000000000000000000000081525060400191505060405180910390fd5b6064826004540111151515610c30576040517f08c379a00000000000000000000000000000000000000000000000000000000081526004018080602001828103825260298152602001807f53756d206f6620616c6c20776569676874732065786365656420746865206c6981526020017f6d6974202831303029000000000000000000000000000000000000000000000081525060400191505060405180910390fd5b816000808373ffffffffffffffffffffffffffffffffffffffff1673ffffffffffffffffffffffffffffffffffffffff168152602001908152602001600020819055508160046000828254019250508190555060018190806001815401808255809150509060018203906000526020600020016000909192909190916101000a81548173ffffffffffffffffffffffffffffffffffffffff021916908373ffffffffffffffffffffffffffffffffffffffff1602179055505060028290806001815401808255809150509060018203906000526020600020016000909192909190915055505050565b60003373ffffffffffffffffffffffffffffffffffffffff168273ffffffffffffffffffffffffffffffffffffffff1614151515610de5576040517f08c379a000000000000000000000000000000000000000000000000000000000815260040180806020018281038252602d8152602001807f596f752063616e6e6f74207472616e7366657220746865206f776e657273686981526020017f7020746f20796f757273656c660000000000000000000000000000000000000081525060400191505060405180910390fd5b6000803373ffffffffffffffffffffffffffffffffffffffff1673ffffffffffffffffffffffffffffffffffffffff168152602001908152602001600020546000808473ffffffffffffffffffffffffffffffffffffffff1673ffffffffffffffffffffffffffffffffffffffff1681526020019081526020016000208190555060008060003373ffffffffffffffffffffffffffffffffffffffff1673ffffffffffffffffffffffffffffffffffffffff16815260200190815260200160002081905550600090505b600180549050811015610f8f573373ffffffffffffffffffffffffffffffffffffffff16600182815481101515610ee257fe5b9060005260206000200160009054906101000a900473ffffffffffffffffffffffffffffffffffffffff1673ffffffffffffffffffffffffffffffffffffffff161415610f825781600182815481101515610f3957fe5b9060005260206000200160006101000a81548173ffffffffffffffffffffffffffffffffffffffff021916908373ffffffffffffffffffffffffffffffffffffffff1602179055505b8080600101915050610eaf565b5050565b600682815481101515610fa257fe5b9060005260206000200160009054906101000a900473ffffffffffffffffffffffffffffffffffffffff1673ffffffffffffffffffffffffffffffffffffffff1663d0e48cad6000803373ffffffffffffffffffffffffffffffffffffffff1673ffffffffffffffffffffffffffffffffffffffff1681526020019081526020016000205483336040518463ffffffff167c0100000000000000000000000000000000000000000000000000000000028152600401808481526020018373ffffffffffffffffffffffffffffffffffffffff1673ffffffffffffffffffffffffffffffffffffffff1681526020018273ffffffffffffffffffffffffffffffffffffffff1673ffffffffffffffffffffffffffffffffffffffff1681526020019350505050600060405180830381600087803b1580156110e157600080fd5b505af11580156110f5573d6000803e3d6000fd5b505050505050565b604051610b258061110e833901905600608060405234801561001057600080fd5b50604051610b25380380610b258339810180604052810190808051820192919060200180518201929190505050600033600260006101000a81548173ffffffffffffffffffffffffffffffffffffffff021916908373ffffffffffffffffffffffffffffffffffffffff160217905550600090505b8251811015610116577fffffffffffffffffffffffffffffffffffffffffffffffffffffffffffffffff6003600085848151811015156100c157fe5b9060200190602002015173ffffffffffffffffffffffffffffffffffffffff1673ffffffffffffffffffffffffffffffffffffffff168152602001908152602001600020819055508080600101915050610085565b600090505b81518110156101a25760046040805190810160405280848481518110151561013f57fe5b9060200190602002015181526020016000815250908060018154018082558091505090600182039060005260206000209060020201600090919290919091506000820151816000015560208201518160010155505050808060010191505061011b565b505050610971806101b46000396000f300608060405260043610610062576000357c0100000000000000000000000000000000000000000000000000000000900463ffffffff168063013cf08b1461006757806350d91583146100af578063d0e48cad14610106578063e2ba53f014610173575b600080fd5b34801561007357600080fd5b506100926004803603810190808035906020019092919050505061019e565b604051808381526020018281526020019250505060405180910390f35b3480156100bb57600080fd5b506101046004803603810190808035906020019092919080359060200190929190803573ffffffffffffffffffffffffffffffffffffffff1690602001909291905050506101d1565b005b34801561011257600080fd5b5061017160048036038101908080359060200190929190803573ffffffffffffffffffffffffffffffffffffffff169060200190929190803573ffffffffffffffffffffffffffffffffffffffff1690602001909291905050506104a9565b005b34801561017f57600080fd5b50610188610898565b6040518082815260200191505060405180910390f35b6004818154811015156101ad57fe5b90600052602060002090600202016000915090508060000154908060010154905082565b600260009054906101000a900473ffffffffffffffffffffffffffffffffffffffff1673ffffffffffffffffffffffffffffffffffffffff163373ffffffffffffffffffffffffffffffffffffffff161415156102bc576040517f08c379a00000000000000000000000000000000000000000000000000000000081526004018080602001828103825260288152602001807f4f6e6c79206372656174696e67204252462063616e2063616c6c20746869732081526020017f66756e6374696f6e00000000000000000000000000000000000000000000000081525060400191505060405180910390fd5b6000600360008373ffffffffffffffffffffffffffffffffffffffff1673ffffffffffffffffffffffffffffffffffffffff1681526020019081526020016000205414151515610374576040517f08c379a000000000000000000000000000000000000000000000000000000000815260040180806020018281038252601f8152602001807f596f7520646f6e7420686176652074686520726967687420746f20766f74650081525060200191505060405180910390fd5b6000600360008373ffffffffffffffffffffffffffffffffffffffff1673ffffffffffffffffffffffffffffffffffffffff16815260200190815260200160002054131561043057600360008273ffffffffffffffffffffffffffffffffffffffff1673ffffffffffffffffffffffffffffffffffffffff16815260200190815260200160002054820160048481548110151561040d57fe5b90600052602060002090600202016001016000828254019250508190555061045f565b8160048481548110151561044057fe5b9060005260206000209060020201600101600082825401925050819055505b6000600360008373ffffffffffffffffffffffffffffffffffffffff1673ffffffffffffffffffffffffffffffffffffffff16815260200190815260200160002081905550505050565b600260009054906101000a900473ffffffffffffffffffffffffffffffffffffffff1673ffffffffffffffffffffffffffffffffffffffff163373ffffffffffffffffffffffffffffffffffffffff16141515610594576040517f08c379a00000000000000000000000000000000000000000000000000000000081526004018080602001828103825260288152602001807f4f6e6c79206372656174696e67204252462063616e2063616c6c20746869732081526020017f66756e6374696f6e00000000000000000000000000000000000000000000000081525060400191505060405180910390fd5b7fffffffffffffffffffffffffffffffffffffffffffffffffffffffffffffffff600360008373ffffffffffffffffffffffffffffffffffffffff1673ffffffffffffffffffffffffffffffffffffffff1681526020019081526020016000205414151561066a576040517f08c379a000000000000000000000000000000000000000000000000000000000815260040180806020018281038252601f8152602001807f596f7520617265206e6f7420616c6c6f77656420746f2064656c65676174650081525060200191505060405180910390fd5b7fffffffffffffffffffffffffffffffffffffffffffffffffffffffffffffffff600360008473ffffffffffffffffffffffffffffffffffffffff1673ffffffffffffffffffffffffffffffffffffffff16815260200190815260200160002054141515610766576040517f08c379a000000000000000000000000000000000000000000000000000000000815260040180806020018281038252602e8152602001807f5468652064656c656761746565206973206e6f7420656c696761626c6520666f81526020017f7220612064656c65676174696f6e00000000000000000000000000000000000081525060400191505060405180910390fd5b8073ffffffffffffffffffffffffffffffffffffffff168273ffffffffffffffffffffffffffffffffffffffff161415151561080a576040517f08c379a000000000000000000000000000000000000000000000000000000000815260040180806020018281038252601f8152602001807f596f752063616e6e6f742064656c656761746520746f20796f757273656c660081525060200191505060405180910390fd5b82600360008473ffffffffffffffffffffffffffffffffffffffff1673ffffffffffffffffffffffffffffffffffffffff168152602001908152602001600020819055506000600360008373ffffffffffffffffffffffffffffffffffffffff1673ffffffffffffffffffffffffffffffffffffffff16815260200190815260200160002081905550505050565b600060046108a46108c7565b8154811015156108b057fe5b906000526020600020906002020160000154905090565b6000806000809150600090505b60016004805490500381101561094057816004828154811015156108f457fe5b90600052602060002090600202016001015411156109335760048181548110151561091b57fe5b90600052602060002090600202016001015491508092505b80806001019150506108d4565b5050905600a165627a7a72305820bb0a952fede7aac39538ce84bb4c337ce7695680f95fe1dc8aeda43e5a501d460029a165627a7a723058204b3326c3021362f73ac1cf6c45f0485d72b12d1b203843c22ef8a2b4bc9d4e2d0029",
  "source": "pragma solidity ^0.4.19;\n\n/* TODO:\n\tTomorrow we check how we test. Try setting it up on remix and trying with metamask and after that\n\ttrying to get together an app.\n\n\tShould we implement a timelimit, in that case where (when to start/stop)?\n\tHow to retrieve the winning proposal in BRF.\n\n\tHow does the has look like (format, size etc.)?\n*/\n\nimport \"./Ballot.sol\";\n/**\n * The BRF contract does this and that...\n */\ncontract BRF {\n\n\tmapping (address => uint) private memberWeights;\t//Same thing as weights\n\taddress[] private addresses;\n\tuint[] private weights;\n\taddress public chairPerson;\n\tuint public sumWeights;\n\tstring public name;\n\n\tBallot[] public ballots;\n\tuint public ballotStatus;\n\n    // voted event\n    event votedEvent (\n        uint indexed _candidateId\n    );\n\n\n\n\tconstructor () public{\n\t\tballotStatus = 0;\n\t\tchairPerson = msg.sender;\n\t\tsumWeights = 0;\n\t\tname = \"BRF Solrosen\";\n\t\t// weights = [25, 5, 2, 35, 15];\n\t\t// addresses = [0xca35b7d915458ef540ade6068dfe2f44e8fa733c, 0x14723a09acff6d2a60dcdf7aa4aff308fddc160c, 0x4b0897b0513fdc7c541b6d9d7e929c4e5364d2db, 0x583031d1113ad414f02576bd6afabfb302140225, 0xdd870fa1b7c4700f2bd7f44238821c26f7392148];\n\t\t// for (uint i = 0; i<weights.length; i++) {\n\t\t// \tgiveRightToVote(weights[i], addresses[i]);\n\t\t// }\n\t\t// int[] storage input;\n\t\t// input.push(1);\n\t\t// input.push(2);\n\t\t// createBallot(input);\n\t}\n\n\n\t/* This function gets passed tuples of weights and addresses. Only the chairperson\n\twill be allowed to call this function. The function assigns a weight to a certain address.\n\tWhen a call is made later, the address will be able to vote with its shares. */\n\tfunction giveRightToVote(uint weight, address currAdd) public {\n\n\t\trequire (weight > 0, \"Cannot assign nonpositive values to our weights\");\n\t\trequire (msg.sender == chairPerson, \"You do not have permission to add a member\");\n\n\t\t/*This might be a problematic requirement if the weights change (mbe we make some \n\t\tappartments smaller etc.) */\n\t\trequire(sumWeights + weight <= 100, \"Sum of all weights exceed the limit (100)\"); \n\n\t\tmemberWeights[currAdd] = weight;\n\t\tsumWeights += weight;\n\t\taddresses.push(currAdd);\n\t\tweights.push(weight);\n\t}\n\n\n\t/* Transfer the ownership of one apartment from one owner to another */\n\tfunction transferOwnership(address newOwner) public {\n\t\trequire(newOwner != msg.sender, \"You cannot transfer the ownership to yourself\");\n\t\tmemberWeights[newOwner] = memberWeights[msg.sender];\n\t\tmemberWeights[msg.sender] = 0;\n\n\t\tfor (uint i = 0; i<addresses.length; i++) {\n\t\t\tif (addresses[i] == msg.sender) {\n\t\t\t\taddresses[i] = newOwner;\n\t\t\t}\n\t\t}\n\t}\n\n\n\t/* @dev Creates a new ballot and pushes it into the global array called ballots.\n\t@param proposalNames array with proposalnames \n\t*/\n\tfunction createBallot(int[] proposalNames) public {\n\t\trequire(msg.sender == chairPerson, \"You cant create a ballot\");\n\t\tballotStatus = 1;\n\t\tballots.push(new Ballot(addresses, proposalNames));\n\t}\n\n\t/* \n\t@dev Votes for a proposal in a given ballot\n\t@param ballotID The id of the ballot we are voting on\n\t@param proposalID The id of the proposal we are voting on\n\t*/\n\tfunction vote(uint ballotID, uint proposalID) public {\n\t\tballots[ballotID].vote(proposalID, memberWeights[msg.sender], msg.sender);\n\t}\n\n\t/* @dev Let's a member delegates it's shares in a certain ballot to another\n\tmember.\n\t@param ballotID The ID of the ballot in which it wants to delegate.\n\t@param to The adress of the person it wants to delegate to.\n\t*/\n\tfunction delegateTo(uint ballotID, address to) public {\n\t\tballots[ballotID].delegate(memberWeights[msg.sender], to, msg.sender);\n\t}\n\n\t/* @dev Calls the ballot to retrieve the winner and sets in motion the transaction\n\tassociated with the winning proposal.\n\t@param ballotID The id of the associated\n\t*/\n\tfunction getWinner(uint ballotID) public view returns (int winnerName_){\n\t\twinnerName_ = ballots[ballotID].winnerName();\n\t}\n\n\t/* test help functions */\n\n\t/* Returns the number of ballots */\n\tfunction getBallotSizes() constant public returns (uint numOfBallots_) {\n\t\tif (ballotStatus == 1) {\n\t\t\tnumOfBallots_ =  ballots.length;\n\t\t} else {\n\t\t\tnumOfBallots_ = 0;\n\t\t}\n\t}\n\n\tfunction getNumOfAddresses() constant public returns (uint numAdd) {\n\t\tnumAdd = addresses.length;\n\t}\n\n\n}\n\n",
  "sourcePath": "/Users/Shad/Desktop/projekt/election/contracts/BRF.sol",
  "compiler": {
    "name": "solc",
    "version": "0.4.23+commit.124ca40d.Emscripten.clang"
  },
  "schemaVersion": "2.0.0",
  "updatedAt": "2018-05-04T09:02:08.799Z"
}